:020000040000FA
:10000000401B0020D90D0100D5FF00002B0D010081
:1000100000000000000000000000000000000000E0
:10002000000000000000000000000000490E010078
:100030000000000000000000D5FF0000D5FF000018
:10004000A10E0100A70E0100D5FF0000D5FF0000A2
:10005000D5FF0000D5FF0000D5FF0000D5FF000050
:10006000AD0E0100D5FF0000D5FF0000B30E01006A
:10007000D5FF0000B90E0100A10200008778000042
:10008000D5FF0000D5FF0000D5FF0000D5FF000020
:10009000D5FF0000D5FF0000D5FF0000D5FF000010
:1000A000BF0E0100C50E0100D5FF0000D5FF000006
:1000B000D5FF0000D5FF0000D5FF0000D5FF0000F0
:1000C0000CFFFFFFDBE5B1512A00500000F002F801
:1000D00010F073FE0CA030C8083824182D18A24662
:1000E000671EAB4654465D46AC4201D110F065FE3A
:1000F0007E460F3E0FCCB6460126334200D0FB1A97
:10010000A246AB4633431847980E0100B80E0100D3
:10011000103A02D378C878C1FAD8520701D330C850
:1001200030C101D504680C60704700000023002432
:1001300000250026103A01D378C1FBD8520700D31E
:1001400030C100D50B6070471FB5C046C04610F0E7
:10015000D8FD04B00FB41FBD826902498161024815
:10016000104470476D0100000100000001B41EB48E
:1001700000B50EF098FC01B40198864601BC01B0B0
:100180001EBD0000F0B44046494652465B460FB4DF
:1001900002A0013001B50648004700BF01BC8646F9
:1001A0000FBC8046894692469B46F0BC70470000D3
:1001B000CD00000070B505460C46164602E00FCC97
:1001C0000FC5103E102EFAD2082E02D303CC03C561
:1001D000083E042E07D301CC01C5361F03E0217869
:1001E0002970641C6D1C761EF9D270BD8307FF2236
:1001F000DB0E9A408907090E994000280BDA0007A8
:10020000000F0838830827489B001818C3699343D8
:100210000B43C3617047830823489B001B18186871
:10022000904308431860704710B504460021012030
:10023000FFF7DCFF00211820FFF7D8FF00210B207B
:10024000FFF7D4FF02211920FFF7D0FF02210D2074
:10025000FFF7CCFF02210E20FFF7C8FF02210F207D
:10026000FFF7C4FF0221C81FFFF7C0FF03211620BC
:10027000FFF7BCFF03211520FFF7B8FF204600F071
:1002800017F8002010BD10B500F033F810BD074876
:10029000704710B500F02EF810BD704770477047DA
:1002A0007047000000ED00E000E400E003E9008397
:1002B00030B5044695B0274802F02CFC05460720CF
:1002C00000F013FE2946244800F04EFEA41F072C20
:1002D0000AD8302168460170847001F0C1FD002801
:1002E00002D009A801F096F8284601F0B8FE15B032
:1002F00030BD704710B50C460121502801D2216055
:1003000010BD0246503A0F2A03D8214602F04AFA9D
:1003100006E00246603A1F2A04D8214600F02CF875
:10032000206010BD0246803A1F2A03D8214600F003
:10033000AFF8F5E70246A03A0F2A03D8214600F0AD
:1003400012F9EDE70246B03A0F2AD8D8214600F05C
:10035000EFF8E5E7FF230000380F01007047704712
:1003600070477047704770477047704710B5012855
:1003700001D100F014FE10BD10B56038030010F07C
:10038000CEFD150C10141E22252B33383D41454956
:1003900050555B646D757B808500086803F0F2FD45
:1003A00010BD086803F045FE10BDC8688A68C3B276
:1003B0004868C4B20868214603F062FE10BD0868B0
:1003C00003F0E5FE10BD03F0A6FB10BD05C980B229
:1003D000114604F076F810BD4868C2B208681146AC
:1003E00080B204F0C5F810BD086840B204F0D0F83F
:1003F00010BD086880B204F0EBF810BD086804F086
:10040000FAF810BD086804F012F910BD086804F08D
:100410003EF910BD886882B209C9194604F069F92D
:1004200010BD05C9114604F0B8F910BD05C980B268
:10043000114604F0D3F910BD48688A68C3B2086851
:10044000194680B204F014FA10BD48688A68C3B235
:100450000868194680B204F0C1FA10BD08684B68FC
:100460008A6880B2194604F0F9FA10BD05C980B255
:10047000114604F044FB10BD086880B204F05DFB37
:1004800010BD086880B204F085FB10BD012010BDCE
:1004900010B58038030010F042FD09060F151B212E
:1004A00029333B41490048688A6883B20868194685
:1004B00080B204F023FF10BD05C980B2114604F0DC
:1004C00076FF10BD05C980B2114604F0ABFF10BD28
:1004D00005C980B2114604F0EFFF10BD08684B68F3
:1004E0008A6880B2194605F01DF810BD886882B28E
:1004F000486883B20868194680B205F04FF810BD0D
:10050000886882B209C980B2194605F082F810BD28
:1005100005C980B2114605F0B0F810BD486882B236
:100520000868114680B205F01FF910BD012010BD0A
:1005300010B5B02805D0B12808D0B2280BD00120C2
:1005400010BD086880B205F0F8FB10BD086880B2E5
:1005500005F022FC10BD08684B688A6880B2194615
:1005600005F02BFC10BD10B5A038030010F0D7FC2F
:100570000B070F182129323B414B51596100086884
:100580004B688A68C0B2194606F0ECFD10BD486899
:100590008A6883B20868194680B206F0F8FD10BD7B
:1005A00008684C68CB688A6880B2214606F0FFFD77
:1005B00010BD08684B688A6880B2194606F019FEBB
:1005C00010BD081D0DC884B20868214680B206F02F
:1005D0002BFE10BD081D0DC884B20868214680B2EC
:1005E00006F032FE10BD05C980B2114606F048FE85
:1005F00010BD886882B2486883B20868194680B224
:1006000006F049FE10BD05C980B2114606F064FE31
:1006100010BD886882B209C980B2194606F0CCFEC6
:1006200010BD08684B688A6880B2194606F091FFD1
:1006300010BD012010BD0000F6488169012252065C
:10064000114381617047F449002008607047F14808
:100650004169F24A1140F24A891841618169090AE7
:100660000902253181617047F8B5FF20E94B01305F
:100670005861032000049861FFF7E9FFE948986397
:10068000FF20043058630024DC6001261E63DC6216
:10069000E54803210160E548C460046144604461A9
:1006A0008461E34A102050601961DA499620403194
:1006B0004860D9480460FFF7BFFFDE4804210161AC
:1006C00002218160DD4DDC4F6F620FF096F82862E9
:1006D000D94840306863D548001D2863D648443067
:1006E000E863D2481030A863D248403004604460C8
:1006F000FE60D34804603F20D04900024039486082
:10070000D0488470447044758472C46124300EF003
:1007100039F9002804D0FF20CBA1683010F0FFFA8F
:10072000F8BDC849012008707047C649002008700C
:10073000704770477047B74940310028086802D0B9
:100740000122104301E0400840000860704770B586
:100750000C46BC4D01460622E81C10F060F96C7294
:1007600070BDB848407D7047B64A91705070704770
:10077000F3B5A94D0746286881B0C0430006000EB6
:100780003BD00024012601E0641CE4B22868314615
:10079000A140084202D0082CF6D301E0082C04D373
:1007A000FF20A9A1AD3010F0BAFA78793A790102A8
:1007B00099481143A2004038101800900162781C3B
:1007C00010F08EF901023878014300980160029818
:1007D000002813D0012804D0FF209BA1BB3010F0CB
:1007E0009EFA28682146083132468A401043286024
:1007F0002868A640304328600120FEBD28682146B5
:10080000083132468A409043F1E710B58107890FDD
:100810001DD181100A317F480B0010F080FB0C15B0
:100820001818181813110F0D0B09071804210CE0E4
:1008300000210AE0FC2108E0F82106E0F42104E0B0
:10084000F02102E0EC2100E0D821C16010BDFF20C2
:100850007DA1ED3010F063FA10BD7A4820300078A9
:10086000704710B56B4C616A090A09026162616ADE
:10087000C27811436162E169C9B2E16110F030F9F7
:10088000E16900020843E06110BD252808D0262850
:1008900008D0272808D041000A2807D8091D06E0FB
:1008A000022105E01A2103E0502101E0891DC9B2AF
:1008B000584A9160574940314861704770B5614C62
:1008C000A07200F0A5FAA07AC0073CD0564D286867
:1008D000800704D49F205CA1800010F020FAA07A49
:1008E000010619D5800706D557A15B4810F017FA05
:1008F000A07A000610D52078504E012813D0002889
:1009000004D0554850A10F3010F009FA4748FC3880
:1009100070610EF072FF3061A07A800713D52868ED
:10092000C00707D101E04D48F2E74B4846A1173018
:1009300010F0F5F9A07A4007286801D5042100E0FD
:1009400008210843286070BD70B53E49012409782C
:10095000424D012905D000290FD03F483AA1543813
:1009600012E0002805D0012815D0852036A180008E
:100970000AE000F04DFA2C6070BD002807D0012875
:1009800009D0892030A1800010F0C9F970BD00F0B5
:100990003FFA6C6070BD8120FFF790FF70BDF8B525
:1009A000234C0C206168C906CD0F1026A6601F4994
:1009B00000220A61294F01233B610BE000BF00BF09
:1009C00000BF00BF00BF00BF00BF00BF401E000649
:1009D000000E06D00B69002BF0D00A61002806D16A
:1009E00000E00A611C4818A1413810F098F9002D68
:1009F00000D06660F8BD0748816901225206914324
:100A00008161704710B510F06BF800020149000ACF
:100A1000C86310BD0015004040160040F0FFF0FF15
:100A2000060002005B0600000012004000110040BA
:100A300000130040008500400080004040F5014068
:100A400040810040180100207372635C68616C5F34
:100A50007263732E630000007E02000000100040ED
:100A6000FE484169FE4A1140FE4A89184161816988
:100A7000090A09021F3181617047FB4902200860A1
:100A80007047F9490220803908607047F7490870BB
:100A9000704710B5F6480DF07DFF002803D0F549EA
:100AA000F54810F03CF910BD10B5F1480DF08AFF83
:100AB00010BDEA4948607047ED4910B52439EF4B45
:100AC0000022C8601A60C9690818ED49086000F082
:100AD000A6F910BDE64810B5C2212438C160E74A26
:100AE00000211160C069E649C230086000F097F942
:100AF00010BDE44900208861C861DD492439C8601F
:100B0000DF4908607047E04901204860C860DB4960
:100B100000200860D6492439C8617047D448D849B4
:100B20002438C069FE3088607047D549002088604D
:100B30007047D6480168102291430160D4490120D2
:100B400088617047D3490020C861D04801681022ED
:100B500011430160704700B5FFF7EBFFC449002067
:100B60002439087400BD00B5FFF7ECFFC04901202F
:100B70002439087400BDC749CA69012A01D0002080
:100B80007047B64A403292685206520E5242027084
:100B90000020C86101207047F8B5BE4C20690128CB
:100BA00006D00021B24824380078012802D004E0A1
:100BB0004021F7E7E268012A04D000220A43012815
:100BC00002D004E02022F9E76168012905D0002164
:100BD0001143B14A002802D007E01021F8E713685A
:100BE000012B02D1E368012B04D000230B43002822
:100BF00002D007E00823F9E71168002902D1E16873
:100C0000012905D000221A439C4E002802D004E09E
:100C10000422F8E73168012904D00021114300289B
:100C200002D004E00221F9E76068012829D00025FC
:100C30009A480D4301680906090E02D0616901292D
:100C400000D000218A4F3F1F397000680006000E57
:100C500002D0A069012800D0002078708848806800
:100C6000002803D006F073FE012800D00020B870E1
:100C70000021E160216161606161A161316028460C
:100C8000F8BD0125D4E7F8B5FFF786FF04467C4898
:100C90000168774D243DA9614068E8612A786F4E6C
:100CA000002A08D1AA78002A05D073681B7813405F
:100CB0006A789A4309D000222A75E20707D00846CD
:100CC00008F0E8FE0121E86908E00122F4E7A10646
:100CD00001D5022102E0A10702D5002108F0E9FEBA
:100CE000716806220931E81C0FF06CFE002807D15C
:100CF000687A71680978C909884201D1012000E049
:100D000000206875204600F091F85848C226007807
:100D100000281CD001282FD0022842D003285FD001
:100D200054495F480FF0FBFF287C002804D0287846
:100D300000286AD0FFF7FDFE2878002806D1E86871
:100D4000002803D0E96909184D480160F8BDA007E3
:100D500001D507F0D5FF200703D50120EE6007F08D
:100D6000E9FF600703D50020EE6007F0E3FFA0066F
:100D7000DAD507F087FFD7E7A00701D50AF08CF88E
:100D8000200703D50120EE600AF00AF8600703D5BA
:100D90000020EE600AF004F8A006C5D509F090FF27
:100DA000C2E7A007BF27002802DA3C400AF08CF90E
:100DB000200704D53C400120EE600AF084F960076A
:100DC00004D53C400020EE600AF07DF9A00602D573
:100DD0003C400AF077F96006A6D50AF076F9A3E759
:100DE000A00701D50AF074F9200703D50120EE60B1
:100DF0000AF06DF9600703D50020EE600AF067F98C
:100E0000A00691D50AF062F98EE7FFF79BFE93E703
:100E10001E49032008601B490020086170471C49D7
:100E200018481031C16115498161704770B5054698
:100E3000FFF7EEFF0E4C243CA17A080701D56807A6
:100E400042D4C80607D50A48001F4278002A02D0BB
:100E50008078002838D0880627D523E00015004088
:100E6000F0FFF0FF0500030080E100E00400002037
:100E70003C010020480A0000B1020000408100400F
:100E80004085004040F501400080004000120040D5
:100E900000100040001100400014004040160040C7
:100EA00051040000207D00280ED1480602D5607D47
:100EB000002809D000208A070026002A07DA4A07FE
:100EC00004D50122227002E00120F4E72670CA074F
:100ED00009D0AA0705D4890705D5002803D0A8069C
:100EE00001D4FFF75CFDA67270BD10B5FFF7BCFB27
:100EF0000DF01DFC06F07AFC0DF072FD06F0E4FC2E
:100F000006F00EFC10BD00001CB50446002069462A
:100F10000870204607F05AFC6946204607F018FB87
:100F2000002803D1FBA1B5200FF0F9FE01A920464E
:100F300007F06DFA002803D1F6A1BA200FF0EFFEFA
:100F4000684600781CBDF849002008760A46C87734
:100F500020321071603A1070203290739074907645
:100F6000087488707047EEE710B50C46EF49828828
:100F70008A8042884A800078087008460A3884705F
:100F800007F01BFAFFF7DFFF204608F0B8FA07F07A
:100F90008BFCE64809F035FD07F00FFC10BD10B5DD
:100FA0000120FFF7DBF910BDF8B508F030F8DF4D90
:100FB000DD4C0A3D022802D0207C00287CD0207E17
:100FC0000026102819D1A078002803D0D1A1D84834
:100FD0000FF0A5FED448E038817989070DD5014688
:100FE000267160394989E180C17921720189618165
:100FF0004089A0810120A0702676CB4F203FB87C8D
:10100000002859D1CB486946408907F0A1FA002849
:1010100005D06946687809784018687004E0C448CB
:10102000BCA11D300FF07BFE207C002838D0C148C9
:101030004189FF300130406D4089814204D0BC4875
:10104000B4A122300FF06BFEBA48408907F026FBAE
:10105000002804D1B648AFA128300FF060FE07F099
:1010600094FB00281CD0B3484089FFF74DFF6978F6
:1010700040186870AC484038416D20318A7B012AA5
:101080000DD1AC4A3E775289C287C87B20700120BF
:10109000B876207E102801D0282800D12676267424
:1010A0006978002908D0A3484289FF300130C28600
:1010B00001870120B8746E7007F09DFF002805D1EC
:1010C000207C002802D0A87801F046FDF8BDF8B5D4
:1010D00004460F46FFF768FF934D403D2878924E37
:1010E000002813D0002F10D1307E002804D0FF201C
:1010F00088A1B6300FF013FE2C22A91C20460FF059
:101100008EFC0E202070002028708FE0864D203D40
:10111000A87B002818D0002FF7D1307E102808D0E7
:10112000282806D0002804D0FF207AA1C2300FF072
:10113000F6FD0120E070E87BA070287C60700F2035
:1011400020700020A87371E00121204607F056FBB3
:10115000002807D0307C002851D13946204607F0BE
:101160004DFBF8BDA97C70480C3800906F480A38D8
:10117000002913D00178052910D2002F56D1491C1F
:101180000170002666700D2020700120287506224F
:10119000A01C00990FF043FCAE7447E063480021A7
:1011A0000A380170B078002814D0002F3ED1307E6C
:1011B000002803D057A160480FF0B1FD00256570ED
:1011C0000120594920700A22091DA01C0FF027FC9C
:1011D000B5702BE03946204609F087FB002825D161
:1011E000A87C002805D0002F20D150480A3801786B
:1011F000C5E7A87E002802D0307C002801D000205E
:10120000F8BD002F12D1307E002804D08B2041A1E0
:1012100080000FF084FD002666700A20424920708D
:101220000622091FA01C0FF0FAFBAE760120F8BDC4
:1012300010B53D48017E002908D1007C012805D069
:1012400001210020FFF743FF002801D0072010BD37
:10125000012010BD10B5012408F066F90443FFF722
:10126000E7FF044307F0AAFA01462143084610BDF0
:10127000F8B50E4614461D4607F0E9F8002807D0D9
:10128000684607F0EFF8002803D0002C07D101E0F2
:101290000120F8BD97201FA180000FF040FD07F04E
:1012A0008DF8A04204D224481AA158300FF037FD1F
:1012B000009806F0F6FC3146009806F004FDE2B214
:1012C0002946009806F0BBFE07F0DEF8002804D19E
:1012D0009B2010A180000FF022FD07F071FA154C41
:1012E00000254034607B002805D0002101220846FB
:1012F00007F09EFE65730F488580C9E710B5017938
:1013000000291BD001291ED002A1F9200FF007FDF2
:10131000002010BD7372635C6C6C5F6374726C2E22
:1013200073302E6300000000B00200201000002087
:10133000E40500007001002005020000831D4288C2
:101340000488022103E042880488831D012120468D
:10135000FFF78EFFDDE7F8B504460D4616461F463B
:1013600007F055FE022803D0FE48007C002820D05C
:10137000FD484089208007F091F9002804D1A7207A
:10138000FA4980000FF0CBFC0524684607F091F97C
:1013900000280ED0009806F0CEFC2870022809D054
:1013A000012807D007F0C5F9641E2406240EECD1ED
:1013B0000020F8BD3946009806F059FE308000281C
:1013C00003D1EA49EA480FF0AAFC07F0B2F9002875
:1013D00004D1E748E549C01D0FF0A1FC0120F8BD8C
:1013E00038B50446831D821C6946FFF7B4FF002808
:1013F0000DD00020607168460078012808D00228CE
:1014000006D0FF20D9491B300FF089FC012038BDE0
:101410002071FBE700215AE670B5D24D0446403DED
:101420002878002803D1CF48007E002803D0CF4978
:10143000D0480FF074FCCC4E21887089884203D1CB
:1014400007F0E5FD022807D002202871012068710D
:101450003821E970287070BD7F20F075C248E178AE
:1014600020304173A17801730020EEE770B5BD4CC8
:10147000403C2078002807D1BA48007E002803D1DC
:1014800007F0C5FD032804D10320B84900020FF07E
:1014900046FCB4480025203005712946401D07F060
:1014A0009BFA0120257160713921E170207070BDB7
:1014B00070B5AC4C0646403C2078002807D1A948BE
:1014C000007E002803D107F0A2FD032804D1C52027
:1014D000A64980000FF023FCA24D2035287908286A
:1014E0000FD20001001965301022314600F088FD4E
:1014F0002879401CC1B22971681D07F06DFA0020DF
:1015000000E007202071012060713A21E170207015
:1015100070BDF8B5934C0546403C2078002803D1B7
:101520009048007E002804D0924890492A380FF055
:10153000F6FBA878002801D0012804D1A888FF2153
:10154000F531884204D98B48884924380FF0E7FBED
:10155000854E29887089884203D107F058FD0228FA
:1015600007D002202071012060713621E1702070C7
:10157000F8BD7D48002720300772A98871850121B8
:10158000B175A978012900D0002101720021012242
:10159000084607F04DFD2771E5E770B5714C05462B
:1015A000403C2078002807D16E48007E002803D1F7
:1015B00007F02DFD002804D06E486C494D380FF01F
:1015C000AEFB287807F0B3FF002020710120607186
:1015D0003021E170207070BD70B5624C0546403C12
:1015E0002078002803D15F48007E002804D061489D
:1015F0005E4918300FF093FB287800280BD00128A3
:1016000009D0022807D06878402804D30B20574916
:10161000C0010FF084FB284607F0F0FC002801D041
:10162000002000E00C202071012060713421E17065
:10163000207070BD70B54B4C0546403C20780028AA
:1016400007D14848007E002803D107F0E0FC0028BD
:1016500004D04848454942380FF061FB29780029F9
:1016600014D00A2912D0142910D01E290ED02829EE
:101670000CD032290AD04B2908D0642906D0FF2982
:1016800004D03C48394936380FF049FB284607F06A
:1016900090FF00202071012060713321E1702070E3
:1016A00070BD70B52F4C0546403C2078002803D112
:1016B0002C4A107E002804D02E482C495B380FF0AD
:1016C0002EFB062229462C480FF0A9F90020207194
:1016D000012060713221E170207070BD70B5214C25
:1016E0000546403C2078002803D11E48007E002893
:1016F00004D020481D496F380FF011FB00216956B6
:10170000042912D0002910D0081D0ED0001D0CD0C5
:10171000001D0AD0001D08D0001D06D0283104D0BD
:10172000144812496D380FF0FAFA00202856FFF7D6
:101730006CF8012060713121E170207070BD10B52E
:10174000084C403C2078002803D10648007E002841
:1017500004D008480549E8300FF0E1FA06F02EFE03
:10176000E0800BE0B00200207001002014130000A4
:10177000AE020000610500000900002006F0E6FE50
:10178000207200202071012060710521E17020701D
:10179000BFE5F8B5FD4C0746A07B2546203500285F
:1017A00005D1287E002802D1A878002803D0F84966
:1017B000F8480FF0B4FA07F02AFC1026022825D1C9
:1017C000F54839884089884220D1F0496039084677
:1017D0000A7D60388079002A03D080070FD40C205E
:1017E0000FE080070BD406200875EB484030407BA3
:1017F000002804D000210122084607F019FC2E76AB
:101800000020E07326740120A073F8BD0220F8E7E1
:1018100010B5DE4C203C2078002804D12046403012
:10182000007E002804D0DB48D94912380FF077FA3F
:10183000002020710E20A0700F20E070FF20A0710A
:101840000020C0432081D5480178A1728188A18100
:101850004088E0810120607120705AE510B5CB4CC2
:10186000203C2078002804D120464030007E00280B
:1018700004D0D320C64980000FF051FA0821A01DE2
:101880000CF0F1FF00202071012060712B21E1702C
:1018900020703EE570B5BD4D0446203D28780028F7
:1018A00004D128464030007E002804D0B948B84909
:1018B000CD300FF034FAB84810222146303800F00D
:1018C0009FFBB5481022A118203800F099FBB248C0
:1018D00030380DF0CEF8B049102210392C46A81D32
:1018E00000F08EFB002020710E20A0702A20E070F6
:1018F00001206071207070BDF8B5A44C0546A07B36
:1019000026462036002802D1307E002804D0A14887
:101910009F49B4380FF003FAA978052912D013298A
:1019200010D014290ED015290CD01A290AD0292933
:1019300008D03D2906D03B2904D096489449AC38BC
:101940000FF0EDF928889649884204D991489049CA
:10195000A3380FF0E4F907F05AFB0C2128270228DE
:1019600009D18D482A884089904218D1874860382B
:10197000027C002A01D0E17313E0A97841740121AF
:10198000017437760020E07383484030407B0028A4
:1019900007D000210122084607F04AFB01E002209F
:1019A000E07327740120A073F8BD70B5774C06462C
:1019B000203C207825464035002802D1287E00288A
:1019C00004D00120724980020FF0A9F96F48062265
:1019D000314639300FF023F80120E87700212171DA
:1019E00060711721E170207070BD70B5674D0446BD
:1019F000203D2878002804D128464030007E002869
:101A000003D0634967480FF08AF92078002806D090
:101A1000012804D067205E49C0000FF080F92178CA
:101A2000601CFEF7A5FE002801D0002000E0072082
:101A30002871012068710B21E970287070BD10B504
:101A4000524C203C2078002804D120464030007EB3
:101A5000002804D053484E490C380FF060F9FEF7C7
:101A6000F2FD00202071012060710A21E1702070D8
:101A70004FE410B507F00BFD002804D05B2044496B
:101A8000C0000FF04CF906F097FE06F07AFC08F063
:101A9000AAFF002804D043483D4951380FF03FF9D0
:101AA00006F0DAFE002804D03E4839494D380FF0E0
:101AB00036F9FEF7C8FDFFF746FA34480021203812
:101AC0000171012141710222C270017021E470B5DF
:101AD0002E4D0446203D2878002804D12846403069
:101AE000007E002804D0E720294980000FF017F974
:101AF00020781F2801D8601C04D12A482449663068
:101B00000FF00DF9002028712078611C06F053FFBA
:101B1000012068712021E970287070BDF8B51B4C58
:101B20000546203C20782646403600280CD1307EE1
:101B3000002809D107F06BFA002802D1307C002878
:101B400007D0287800280ED01648114973300FF0BE
:101B5000E6F82878012806D0002804D011480C495E
:101B600078300FF0DCF801206071287800270A4DEA
:101B7000012819D007F081FC00285DD00C202071CD
:101B80001B20E07001202070F8BD000090020020B2
:101B900014130000C6040000700100201000002093
:101BA000FF0E0000370300000C20207106F08CFEB1
:101BB0000028E5D00221F7480CF0DEFD002806D011
:101BC0000F21688909020EF0A4FF698100E06F818E
:101BD000F048012203210A3806F072FA002804D0E6
:101BE000ED49EE480FF09BF8CAE7EA480A3806F0DC
:101BF000CAFF688906F0E4FB002804D1E748E649FB
:101C000012380FF08CF86889002106F0DDFD0028FD
:101C100004D0E248E0490E380FF081F8E0488178BE
:101C2000008807F088FC002804D0DC48DA490A382C
:101C30000FF075F82771A3E72771307C00289FD13A
:101C40006889FFF761F99BE770B5D54D0446603DA3
:101C50002878002804D128464030007E002804D08F
:101C6000CE48CD494D380FF05AF820781F2801D8BA
:101C7000601C04D1C948C8494C380FF050F8002006
:101C800028712078611C06F0B0FE012068711A21CD
:101C9000E970287070BDF8B5C14D0C260446603D52
:101CA00028782F464037002806D1387E002803D1F7
:101CB00007F0ADF9032804D16B20B749C0000FF03D
:101CC0002EF86079002801D001282FD1A0790028B2
:101CD00001D001282AD1A07B002805D0012803D0FB
:101CE000022801D0032821D1607B40071ED06188E3
:101CF00001208003814202D82288824201D92079C2
:101D00000CE02079002804D0022805D0032803D055
:101D100004E0202904D209E0A02A01D2012805D13B
:101D20002088884207D92079012804D09B489A4905
:101D300071380EF0F4FF9A48218801802179817072
:101D40006079002802D0012803D00CE0954A0021D8
:101D500005E0F87F002806D0914AD21F01212046D5
:101D600006F0B6FD064601202E7168711821E97053
:101D7000287009E770B58A4C0546603C2078002839
:101D800004D120464030007E002804D08348824998
:101D9000AE300EF0C4FF07F03AF90C2102280FD143
:101DA0007C482A880A3843899A4219D10246C032AF
:101DB000137D002B04D1007E0E2803D00F2801D004
:101DC000217103E005201075002020710E20A07005
:101DD0002E20E0702888E08001206071207070BDA6
:101DE0000220F2E770B56E4C0546603C2078002872
:101DF00004D120464030007E002804D06748664960
:101E000082300EF08CFF07F002F90C2102280FD16E
:101E100060482A880A3843899A421FD10646C0364C
:101E2000327D002A04D1007E0E2803D00F2801D075
:101E3000217109E05A481022A91C7E380EF0EFFDEE
:101E400004203075002020710E20A0702D20E0703D
:101E50002888E08001206071207070BD0220F2E7C8
:101E600010B501782A2956D01EDC17294BD00EDC7C
:101E70000B2944D006DC02293BD0052959D00A2978
:101E80007FD139E00F294DD010297AD14DE01B299F
:101E900027D004DC18291CD01A2972D11DE0202972
:101EA00023D028296DD132E02B390B000FF037F801
:101EB000103769090D695444484C50695869646188
:101EC0005D69801CFFF78EFF59E0801CFFF752FF11
:101ED00055E0801CFFF7DFFE51E0801CFFF7B4FEE9
:101EE0004DE0801CFFF71AFE49E0801CFFF7EFFD74
:101EF00045E0FFF7BEFD42E0FFF7A1FD3FE0801C9B
:101F0000FFF773FD3BE0801CFFF74FFD37E0801CBF
:101F1000FFF7F2FC33E0801CFFF7BCFC2FE0FFF77B
:101F20009DFC2CE0FFF774FC29E0801CFFF731FCDE
:101F300025E0FFF704FC22E0801CFFF7CFFB1EE04A
:101F4000801CFFF7AEFB1AE0801CFFF773FB16E066
:101F5000801CFFF741FB12E0801CFFF71EFB0EE028
:101F6000801CFFF7D6FA0AE00BE0801CFFF7A0FA0E
:101F700005E0FFF77BFA02E0801CFFF74DFA012035
:101F800006E4002004E410B5034907480EF0C7FE3C
:101F900063E400007A01002014130000DB0300005A
:101FA000D002002009000020A505000010B51B4C40
:101FB0000123E11DF9310A46403200281DD00328D3
:101FC00004D0042819D01649164813E00122002134
:101FD000124806F075F8002809D110480021C030D9
:101FE00001754175C03807F035FC002804D00D4854
:101FF0000B4933380EF093FE2FE413744C652CE438
:1020000030B5134606E0CC18203CD51AE47F5B1EA1
:102010004455DBB2002BF6D130BD0000700100202A
:1020200014130000AE06000010B503000EF077FF99
:10203000070805080B0B0E0E110003F09AFD10BDEA
:1020400001F09AFD10BD0AF047FA10BD0CF084F8BB
:1020500010BDFF20FDA176300EF061FE10BD7FB5F2
:10206000FE4AFF4D51689268019200912870FD4828
:102070000CF0DFFD0024FC480CF0E2FD641CE4B22F
:10208000072CF8D3F7490320803140020AF076FA92
:10209000002803D0EDA18C200EF041FE1E2202216B
:1020A000F24809F0B7F8F1481E220321103009F078
:1020B000A8FCEE4807223421743009F00BF8EB48F5
:1020C0004C2128300EF00AFDE8496A467431084672
:1020D0004C384164FF317B318164012111720390DE
:1020E00001F0FAFE02A80AF05FFD002803D0D7A194
:1020F000A0200EF014FE02222421DD4808F0EAFFA1
:10210000DB4801222C214C3008F0E4FFD84906209E
:1021100060390CF00BF9002803D0CCA1AD200EF0F3
:10212000FEFD03F013FD02F0B2FF04F07DFA6B46F2
:10213000D04A0821D0A001F02FFE002803D0C3A16F
:10214000B4200EF0ECFD012004F013FD002803D0B4
:10215000BEA1B6200EF0E3FD6D21C900C9480EF006
:10216000BDFCC849BD4A0020135C0C18401CC0B21D
:10217000E3700428F8D30020686068707FBD70B5F4
:10218000C14E0546706A94B00C46401C04D1B06A3A
:10219000C0430004000C0BD0306AC007C00F287089
:1021A000706A0EF0AEFCB06A2071000A607113E034
:1021B0002B206946087009A9684608F0CBFF002863
:1021C00003D0A2A1D9200EF0AAFD0120287006227A
:1021D0000AA920460EF023FC2878002815D0607943
:1021E000C0210843607117206946087000A80622C4
:1021F000214602300EF013FC09A9684608F0AAFF38
:10220000002815D091A1EE2010E032206946087018
:1022100000A80622214602300EF001FC09A96846FA
:1022200008F098FF002803D088A1FA200EF077FD6F
:1022300014B070BDF0B5944C0646206895B00D46BC
:102240003746401C0837002808D16068401C05D17B
:10225000A068401C02D1E068401C11D020683146C3
:102260000EF04FFC6068311D0EF04BFCA068394643
:102270000EF047FCE06831460C310EF042FC25E0E0
:102280002B206946087009A9684608F063FF0028FA
:1022900004D0FF206DA11A300EF041FD08220AA9DA
:1022A00030460EF0BCFB2B206946087009A9684631
:1022B00008F050FF002804D0FF2064A121300EF068
:1022C0002EFD08220AA938460EF0A9FB20692E46E9
:1022D000401C0836002808D16069401C05D1A0695F
:1022E000401C02D1E069401C12D0206929460EF042
:1022F00008FC6069291D0EF004FCA06931460EF04F
:1023000000FCE06929460C310EF0FBFB15B0F0BD76
:102310002B246846047009A908F01CFF002804D08B
:10232000FF204AA13F300EF0FAFC082209AF0AA9AB
:1023300028460EF074FB6846047009A908F00AFFED
:10234000002804D0FF2041A146300EF0E8FC08220E
:10235000391D30460EF063FBD8E710B500200CF0B5
:10236000F7FC01200CF0F4FC02200CF0F1FC03203F
:102370000CF0EEFC04200CF0EBFC05200CF0E8FC6B
:1023800010BD10B53F4CA078092804D3FF202FA121
:102390008F300EF0C4FC20786021484300190830CB
:1023A000002101704178E722C908C900C91C114009
:1023B00041702B4A0121517010BD70B5284C6078D6
:1023C00000280ED02F4800250178491CC9B20170A1
:1023D000092900D105708178491C81700CF031FD0C
:1023E000657070BD70B51E4C05466068002804D04D
:1023F000FF2016A1B8300EF092FC656070BD70B57C
:10240000174E204DFFF7BDFF71680446002907D025
:102410006022FDF7CFFEFFF7D0FF00207060F1E7EC
:102420002879002846D012484C3008F063FE6060DE
:10243000002804D1FF2005A1D6300EF070FC6068A2
:1024400008F0B0FE002831D020461FE07372635CB4
:10245000686F73745F636F72652E6300400F0100D5
:10246000180000205803002029200000D80900206F
:10247000A80F0020341200006E5246353138323237
:1024800000000000E00B00208000001000F0ACFE17
:102490006078010707D5C008C000401C607028792B
:1024A000401E287127E0B84861682AE0B648616894
:1024B00008F029FE687900282BD0B3484C3808F082
:1024C00019FE6060002804D1FF20B049F2300EF000
:1024D00026FC606808F06AFE002815D0204603F04C
:1024E00087FB6078010709D5C008C000801C6070B8
:1024F0006879401E6871FFF760FF83E7A248616852
:102500004C3808F000FE7DE79F4861684C3808F0C1
:10251000FAFD70BD10B50C4611461A460023138013
:1025200001280BD002280DD0032813D004280DD089
:10253000964997480EF0F3FB032010BD204603F0A8
:1025400023FB10BD204601F0C8F810BD204603F063
:10255000BDFF10BD204602F0BAFD10BD01468A48FD
:1025600010B54C3808F0CFFD8A494879401CC0B2FC
:102570004871012803D18848007800F0EDFA10BDB9
:10258000F8B50746072040070E46081801218903C1
:10259000884204D2F81C80088000B84201D0102084
:1025A000F8BD7C488178002911D0318800914178AC
:1025B000602251430D180835287833460007000F74
:1025C00000222946FFF7A6FF040004D040E00020C7
:1025D00030800520F8BD002F3ED031880098814220
:1025E00001D90C2415E0287833460007000F3A463D
:1025F0002946FFF78FFF04000BD166484178491C3C
:10260000C9B24170092901D1002141708178491E68
:10261000817068784107490F022902D0012906D04C
:1026200014E0C00612D46868FFF798FF0EE0564821
:10263000696808F068FD57480179491CC9B2017101
:10264000012903D15448007800F086FA002C03D009
:102650000C2C01D0002030802046F8BD072149070E
:10266000012241189203914201D3102070470721A3
:10267000017000207047052210B5920390420ED3DE
:1026800001239B04C21A454B9A4208D3444B9842FB
:1026900005D2072252078A18DB139A4201D3102071
:1026A00010BD0BF05CFE10BD052310B59B039942D5
:1026B0000ED301239B04394CCB1AA34208D3384BC9
:1026C000994205D2E3020124D318A403A34201D303
:1026D000102010BD022803D0102801D0092010BD01
:1026E0000BF05CFE0028FAD0052010BD70B5052364
:1026F0009B03984213D301239B04284CC31AA34283
:102700000DD3274B98420AD2E3020124CD18A4032B
:10271000A54204D2002A04D0D318A34201D310202A
:1027200070BD0BF077FE0028FAD0072070BD10B501
:1027300004460720400701212018890394B08842ED
:1027400002D3102014B010BD01F012FC002801D0FB
:102750001120F7E70F2008A9087369460BA808F0B5
:10276000F9FC002804D05D200849C0000EF0D7FA1B
:102770006846007A20706846408960806846808993
:10278000A0800020DEE70000F40F00204C240000B1
:1027900023020000E00B0020180000200000FC1FB6
:1027A0000040002010B5503803000EF0B8FB0604BE
:1027B000090D121A212505C91146FFF7E1FE10BDCA
:1027C0000868FFF74BFF10BD05C91146FFF753FF1F
:1027D00010BD08684B688A68C0B21946FFF764FFED
:1027E00010BD4B688A6808681946FFF77FFF10BD67
:1027F0000868FFF79CFF10BD012010BD10B5EFF376
:102800001080C407E40F72B6AF484178491C41708C
:102810004078012801D10CF039FB002C00D162B6C0
:1028200010BD70B5A84CA07800280AD10125A5706C
:10283000FFF7E4FF0CF032FB002804D000200CF07E
:1028400005FB002070BDA14825714560F9E770B512
:10285000EFF31080C507ED0F72B69B4C607800282F
:1028600003D19BA183200EF05AFA6078401E60705D
:102870006078002801D10CF00DFB002D00D162B66C
:1028800070BD10B590488178002904D000210171F5
:102890008170FFF7DCFF002010BD10B504460CF07E
:1028A000FDFA89498978084000D001202060002085
:1028B00010BD10B50CF0F8FA002805D082480121AF
:1028C00081704178491C417010BDF8B5844CA068F6
:1028D0000026012802D1A6600CF0B8FA6068012831
:1028E00000D1666020680125774F012813D126604A
:1028F0003879002803D000200CF0A8FA3E7138780F
:10290000002808D07748C068C00704D07448C03891
:102910008563000605612069012812D1266100F057
:1029200096F8012080074561FFF768FF6D48C06891
:10293000C00705D06A48C03885630006056100E01D
:102940003D70E068012810D100F081F800F07FF8B8
:1029500000F07DF8E6603E70FFF779FF0BF052FE65
:10296000002802D05E48C038C563F8BDF8B50146FE
:1029700000252C465448022610270B000EF0CFFAF3
:102980000705080B0F1215171F000124C6701BE066
:102990000124042101E001240821C17014E0012474
:1029A000C77011E001242021F7E701250CE0FFF7B3
:1029B00025FF0CF073FA0028FBD0022504E0FF206D
:1029C00043A13E300EF0ABF90CF074FA002809D0A8
:1029D0000CF076FAA84205D128460CF074FA0028CB
:1029E000FAD021E001208107C8603D4B00225A60E7
:1029F0003D4A9561354A566088603C4801690369E3
:102A0000C943C906C917491C3B430361344B00E065
:102A100020BF5D68002DFBD0002902D10169B943B8
:102A20000161966000205860002C01D000F016F87B
:102A3000F8BD10B524488078002801D10CF02AFA9E
:102A40000120810788612149801E886010BD5021C6
:102A50000846491E89B20028FAD17047F8B5002708
:102A60001A49192088601E4C3D462760E76027619F
:102A70000CF014FA00280BD10CF016FA002802D141
:102A80000127FFF7BBFE0CF009FA0028FBD02560F8
:102A90000126B0070661E0680028FCD0E560002F41
:102AA00001D0FFF7D4FE09491920486006480E49B5
:102AB000C0788863FFF7CBFF0124A407A661FFF766
:102AC000C6FF6661F8BD0000200000200003004042
:102AD0007372635C736F635F636C6F636B2E630011
:102AE00000010040000400400005004000ED00E04F
:102AF00001203849400608603749086037490A68AC
:102B0000FF231B029A4383121A430A60314980391A
:102B10000860704710B5024631490020C3005B18B9
:102B20001B79002B09D0401CC0B20428F6D32DA17C
:102B300042200EF0F4F8FF2010BDC300CA5000225E
:102B400059184A718A7101220A7110BD244A002164
:102B5000C00080180171704710B50446042803D3E3
:102B600020A151200EF0DBF81D48E1000C1820795F
:102B7000012803D01BA152200EF0D1F86079A17971
:102B8000401CC0B2814205D060710120114940064D
:102B90008031086010BD70B510480068800B0228B5
:102BA00003D010A16A200EF0BAF800240C4E03E006
:102BB000305880476879A871E00085192979012982
:102BC00003D16979AA799142F2D1641CE4B2042C50
:102BD000F2D370BD80E100E080E200E018E400E0A4
:102BE000241000207372635C736F635F7369676E98
:102BF000616C6C696E672E63000000008107C90E6E
:102C0000002808DA0007000F083880082C4A8000E6
:102C10008018C06904E080082A4A80008018006893
:102C2000C8408009704710B50D20FFF7E7FFC4B218
:102C30000420C043FFF7E2FFC0B2844203D022A1C8
:102C400019200EF06CF810BD0121244A48031060D1
:102C5000234B00221A60234A5160234A1060234A02
:102C600011601E4980390860704701211B4A4803E2
:102C700010601E4A51601A4A002111601A4908600A
:102C8000704710B516490868012804D00EA15520D8
:102C90000EF045F810BD164880680022C0B20A60E8
:102CA0000BF007FE10BD10B50D4801680029FCD0DF
:102CB000FFF7E7FF01200C494003086010BD00004A
:102CC00000ED00E000E400E07372635C736F635F2B
:102CD00068616C5F726E672E6300000080E100E047
:102CE00000D1004000D3004080E200E000D000406E
:102CF00000D5004070B5FFF7FBFE7148FFF70AFFF3
:102D0000704C20707048FFF705FF607001206F491C
:102D1000C2020A6005060D606D490B681B021B0AA2
:102D20000B606C4B1C680021240A24021C606A4B57
:102D300058609860694C21606160A16068490A60D0
:102D40000D6068490A600D60186070BD10B55D4C7B
:102D50002078FFF7FBFE6078FFF7F8FE01205B4963
:102D6000C2020A6003060B605B49486088605B49E9
:102D7000002008604860886059480260036010BD08
:102D800001205749C0020860704710B50446012869
:102D900003D955A15A200DF0C2FF5049A000401898
:102DA00010BD0246103201219140564A9160564AA8
:102DB0009160564A0021800082181160474A8018AD
:102DC00001607047F7B504461746022803D946A1AB
:102DD00076200DF0A4FF4D48A100404A0E188D1832
:102DE00001201034A0400446012F12D0002F03D040
:102DF0003DA18C200DF093FF424884602868002894
:102E000001D000202860404844600198306003B041
:102E1000F0BD2868002801D00020286039484460AF
:102E2000F1E73B484068704770B52C4D2868002694
:102E3000344C012809D1A068C00306D50120000444
:102E4000A0602E6000200CF0E2FC6868012809D127
:102E5000A068800306D501204004A0606E600120B8
:102E60000CF0D5FCA86801280AD1A068400307D55A
:102E700001208004A060AE6012480078FFF76CFE6D
:102E800070BD0120234900060860704701201449E5
:102E900000060860704701201E4940050860704721
:102EA00001200F4940050860704710B5054840787B
:102EB000FFF752FE10BD10B50CF089FD10BD0000EB
:102EC000A7FE00002500002051F9000080E100E08D
:102ED00008E400E018E400E000B0004040B1004029
:102EE00080E200E000E100E07372635C72656D5F98
:102EF00068616C5F6576656E745F74696D65722E6E
:102F00006300000000B3004040B3004040B5004003
:102F100000B5004000E200E070B5FF4D04462968AE
:102F20000300A0310DF0FBFF08053E08080E1D2C24
:102F30003242FAA1D42033E0887F012832D0F7A1B1
:102F4000DA202DE001F05EFE05282BD001F05AFEBC
:102F5000062827D001F056FE072823D0EFA1DD2058
:102F60001EE001F04FFE03281CD001F04BFE0628A6
:102F700018D001F047FE072814D0E8A1E2200FE0A6
:102F8000887F05280ED0E5A1E72009E001F03AFE90
:102F9000052807D001F036FE062803D0DFA1EA207D
:102FA0000DF0BDFE2868A030847770BDDBA1EE2057
:102FB000F6E7D949C1220968525CD206920F05D1C1
:102FC000A0318A8A824201D1887D704700207047F3
:102FD00070B50446112020700021CF4D6170296822
:102FE000C0318978002908D003290ED0042910D0D7
:102FF000FF20CAA118300DF092FE207800090128A8
:1030000002D92868407E607070BD0007000F203034
:1030100002E00007000F30302070EEE730B5038883
:10302000C249C34C8B4202D09A1FA2421ED2428890
:103030008A4202D0951FA54218D2934216D883889F
:103040007D24E400A34211D8C088884205D0B84D41
:1030500004460A3C2D1FAC4208D2884208D08A425E
:1030600006D05B1C5A43C000824201DD072030BD00
:10307000002030BDFFB50022099B002802D09942F4
:1030800005DC5CE0002902D1002004B0F0BD09207D
:10309000FBE7845C002C12D0861877780D2F4CD07B
:1030A00010DC3B000DF03BFF0A421B2A2A30303275
:1030B000323A3A42835C002B3FD1521CD2B28A4250
:1030C000F8DBE1E7122F31D004DC0E2F35D00F2FC3
:1030D0002CD132E0142F11D0152F27D116E0022C5D
:1030E000D5D1B378039C072B237001D25B0701D4A1
:1030F0000A20CAE7029B01241B7814E0E343DB07A4
:1031000008E0012C08D011E00620BEE70F262307B7
:1031100036079B19002BF4D02846B6E7029B1B7894
:103120009C070AD402242343029C2370835C521C14
:103130009A18D2B28A4204DDA9E70B20A5E7192527
:103140006D028A42A5DB9FE705E00278401C002A59
:1031500001D0002070470A46491E89B2002AF4D1E6
:103160000120704730B56C4C0021206887B0C943FE
:10317000A03081820025857506200BF0E9FD052031
:103180000BF0E6FD02200BF0E3FD0120FFF7C4FE8B
:1031900020686946A030C57701200870684609F0AC
:1031A00024FD07B030BD10B55B4A94B01268A03260
:1031B000927F042A0AD028236A461370508013296C
:1031C00006D03B2904D0072014B010BD0820FBE72F
:1031D0001171104609A907F0BDFF040002D10420B7
:1031E000FFF79AFE2046EFE7F0B59BB0040003D14D
:1031F0004AA150480DF093FD6220207060680027BE
:1032000001780826491F444D0B000DF088FE0F0978
:103210006DCCFB6D6FF9F8AB6D6D6D6DF7F66D00F4
:103220002868A030807F032804D097203BA180002D
:103230000DF075FD00200BF08BFD607810233043FE
:10324000607028680146C0314A781A434A70616844
:103250008A783C2A45D08E8801460122A0318A75A1
:103260006268D2890A836268128A4A836268528AD3
:103270008A838E8261680622C979C17361681030C1
:1032800008310DF0CCFB0520FFF746FE2868C2216F
:103290000F54C17EFB221140C176B02109584A7AF1
:1032A000920892004A728775304602F05BFC002853
:1032B00004D0204819A122300DF031FD304601F034
:1032C000F4FE002804D04F2014A1C0000DF027FD0B
:1032D000304603F0B0F9002806D016480FA1273079
:1032E00021E10120FFF718FE1BB0F0BD878801F037
:1032F00089FC052822D001F085FC06281ED001F0AB
:1033000081FC07281AD001F07DFC042816D009485A
:1033100002A1333010E00000280000207372635CCB
:103320006761705F636F72652E630000FFFF0000CE
:103330007B0C0000530200000DF0F1FC607830437C
:1033400060702868C030417831434170FFF70AFF50
:10335000384602F00CFC384601F0ADFE384603F06A
:103360008EF9C1E701F04EFC05280FD001F04AFCB0
:1033700006280BD001F046FC072807D001F042FCDC
:10338000042803D0F749F8480DF0C9FC6068C088EC
:10339000C0B202F0A3FC0028A6D06178314361706E
:1033A0006168C880A0E701F02DFC052810D001F06D
:1033B00029FC06280CD001F025FC072808D001F0D4
:1033C00021FC042804D05520E649C0000DF0A7FCDC
:1033D0006078304360706068C1882868A0300183DD
:1033E00061680989418361684989818302200BF002
:1033F000AFFC2868A030C77776E701E15AE16CE0BE
:103400006DE0FFE701F0FEFB052810D001F0FAFBAC
:1034100006280CD001F0F6FB072808D001F0F2FBDB
:10342000042804D0D048CF4922300DF078FC286819
:10343000BE21095C042994D0807D400636D56068A1
:1034400002210C30FFF780FE00282FD06068082191
:10345000001DFFF779FE002828D02968B0204058C9
:10346000407A800708D1C220405C002808D1887DBE
:10347000020605D5C00703D1887DBF22104088759C
:103480002D2268460270B420425A684642801022BB
:10349000933101A80DF0C3FA09A9684607F05AFE56
:1034A0000028A9D0B048AF4942303CE028686268A3
:1034B0000146A331137B0B70527B4A70616808226E
:1034C000091DA5300DF0ABFA10A806742868A530C8
:1034D000159014A809F089FB06E70121817101F01C
:1034E00091FB052810D001F08DFB06280CD001F0CF
:1034F00089FB072808D001F085FB042804D09A48EE
:10350000984966300DF00BFC2868BE21095C04293F
:10351000E2D061688A79002A02D08978002905D032
:1035200091489049C6300DF0FAFBDDE661783143F1
:103530006170B0210958497A8907890F012906D09D
:10354000817D4906C17E49074ED504214DE0C17EEB
:10355000490701D5042100E00321C03081702B20F0
:103560006946087009A9684607F0F4FD002804D0F0
:103570007D487C4981300DF0D2FB69460A8D286870
:1035800010A9C275120A02760E220A7477491591A3
:10359000027A0A70024609324A600E320A61521DEE
:1035A0008A601032CA60133A4A618A328A61921C78
:1035B000CA61423A0A6210324A6210328A62403A62
:1035C0008A63D21FCA63521C53300A64486414A829
:1035D0000AF082FC02280DD000280BD06248614915
:1035E000A9300DF09CFB05E00321C030817006205E
:1035F0000BF0AEFB2868BF22817D1140817573E618
:10360000808814902868A030807F032804D0564812
:103610005449D5300DF083FB00200BF099FB607806
:1036200010223043607028680346C030417811434F
:10363000417018460121A030817561680622C98950
:1036400001836168098A41836168498A8183149989
:1036500081826068C079D87361681846083110307B
:103660000DF0DDF90520FFF757FC2868C2210F5443
:10367000C17EFB221140C1768775149802F072FA60
:10368000002804D038483749E9300DF048FB149839
:1036900001F00BFD002804D033483249EC300DF026
:1036A0003EFB149802F0C7FF0028A8D02E482D49F1
:1036B000EE3038E760783043607015E600290BD0B3
:1036C00088802B480068A030028BCA80028B0A8158
:1036D000428B4A81808B88817047F7B50646007817
:1036E0000C460027010982B03D46012971D02048CF
:1036F00000680090C03002296CD0062904D0092946
:1037000069D018491B48C5E171680A78521F130037
:103710000DF005FC0F09A858A8A83662624EA8A8AB
:10372000A8A86C75A80088783C2825D010271625F5
:10373000002C7DD08888A0807068A21DC08920825E
:103740007068C089E0817068008A60827068408A11
:10375000A082716808460831C07901F058FA00204B
:10376000607378E01C33000099020000A410002070
:1037700028000020ED0400001927072500201FE085
:1037800011270E25002CD4D089880091A180716862
:10379000897961734278F7210A404270009802F0FB
:1037A000E7F9009801F08BFC009802F071FF9AE1B4
:1037B00001270725002CBCD08888A0807068C088AD
:1037C000A07190E1888812270E252146FFF776FF29
:1037D00089E14AE084E162E018270825002CA8D09E
:1037E0008888A080A01DFFF7F3FB7CE11A2707253E
:1037F000002C9ED04888A08070680079E0E71027F0
:103800001625002C95D08888A0807068C0892082F9
:103810007068C089E0817068008A60827068408A40
:10382000A082607B71684008497D4000C90700E0C4
:103830006EE1C90F084360737168C007497DC00F0E
:1038400049084900084360737168A21D08460831A1
:10385000C07901F0DCF9F9480068C0304178EF2206
:10386000114026E1F649F74814E1307A012803D0E7
:103870004320F34900010DE112270E2570892146EE
:10388000FFF71CFF002C96D070784007400F0328EC
:103890008DD1EA480068C0304178FB22E0E7E74973
:1038A0000968A031002C01D08A8AA280327A921E47
:1038B00013000DF034FB073B4651F2DD6B05F200BF
:1038C00013270C25002C8AD0F16889788907890F85
:1038D0000129217A27D0490849002172FD2211408F
:1038E000F268E32392785207D20F520011432172FB
:1038F0000022E2801940F3681B785B07DB0E194356
:103900002172DF231940F3685B78DB079B0E1943B4
:1039100021726272F1680122C978A17201781143A3
:10392000F722114016E001221143D6E715270C2596
:10393000002CA8D0F06806220068A11D0CF022FB24
:10394000D1E016270725002C9DD0317BA17101788D
:10395000082219E00170C6E014271225002C92D02D
:1039600000980099C07BA21D103101F050F9B08978
:10397000E081207C01210843F92108402074AF48F0
:103980000068C030017802221143E3E71727382589
:10399000002C98D03221A01D0DF09EF80020A071BF
:1039A000207A03210843A54E20723168FB23CA7E8A
:1039B00018405207D20F920010432072B020405896
:1039C000407A800753D0A07A8A7D4008D207400011
:1039D000D20F1043FD221040A0728A7D184092073A
:1039E000D20F9200104308221043EF221040A07221
:1039F0008A7DE07AD206D20F184092001043E0721E
:103A0000F72210408A7DD206D20FD2001043E07216
:103A10000A7ECB7D10021843A0812046102263311C
:103A20000E300CF0FCFF3168A07F4A7EC007C00F4B
:103A300052001043A077CA7E400852074000D20FC0
:103A40001043A07720461022433120300CF0E7FFCE
:103A500031683C20405C224630323D3101F0D7F8DD
:103A600030688030006B417A8908890041723AE001
:103A7000327B022A12D017273825002C48D0012A81
:103A800019D0032A19D0042A1AD0052A18D06D4853
:103A90006B49B1300DF043F925E01DE019270725EA
:103AA000002C35D0898AA1800121A1714178490873
:103AB0004900417017E0012000E00220A07106E0FB
:103AC000707B0007000F8030A071052A02D0002013
:103AD000E07108E00120FBE75A485949BB30D9E7BB
:103AE000317A002908D00498002C058001D0278065
:103AF0006580002005B0F0BD19270725002C07D0F0
:103B00000021C943A1800021A1714178FD22A7E6CF
:103B100004980580EDE700B595B001F073F8022830
:103B200003D001F06FF803281ED11B2108A80173F0
:103B30000021817369460BA807F00CFB002803D015
:103B40003F4941480DF0EBF8684640781B2804D007
:103B50003D483B49C01C0DF0E2F800200BF0F8F89E
:103B600068468078002802D0082015B000BD0120EA
:103B7000FFF7D2F90020F8E770B500252F4C002898
:103B800006D0022816D02E4930480DF0C8F870BD76
:103B9000FFF7C1FF0028FAD1FEF7F3FB22210170E5
:103BA0000572FEF70AFC2068C030417802221143FA
:103BB000417070BDFEF7E5FB122101700121017219
:103BC0002168A0318A8A4281CD77FEF7F6FB206812
:103BD000C03041780422EAE770B504000D4604D1F4
:103BE0001A48174908300DF09AF82078012805D0B6
:103BF0001648134926300DF092F870BDA18814487C
:103C00000E4E814209D1E288824206D130681321EA
:103C1000A030808AFFF7C7FA70BD814202D1E088E8
:103C2000002817D01220287068780821084368708F
:103C300007CC083507C5002112E00000280000204D
:103C40001C330000190400003608000024050000A1
:103C5000FFFF00007822002102200AF0FCFF022171
:103C60003068A030C17770BDF7480068C0308078F8
:103C7000704738B5F44C0546017820680B00A03039
:103C80000DF04DF909863506067113365A75860012
:103C9000807F052803D0ED49ED480DF040F82068FD
:103CA0000422C17E1143C1765DE0A98800291ED09F
:103CB000808AE84988421AD0A868002804D1572091
:103CC000E24900010DF02BF8A86806220A38A86026
:103CD00000902068AB88A030808A042101F078FE33
:103CE000002804D0DA48D94914300DF018F838BD4E
:103CF0002979807F02290BD00428F8D0284600F0CB
:103D000097FF20681321A030808AFFF74CFA38BD56
:103D1000062804D0CE48CD491E300DF000F82846C4
:103D200000F086FF20680122C030417811434170C5
:103D30000520FFF7F1F838BD00F064FF052808D032
:103D400000F060FF042804D0C148C0493C300CF0AA
:103D5000E6FF0ECDC0480361C26081609221017010
:103D6000FEF740FB38BD284600F062FF38BD00F08A
:103D700049FF052808D000F045FF062804D0B448C4
:103D8000B2494D300CF0CBFF0720FFF7C5F8EAE74A
:103D9000AF48AE495630A8E7FFB593B00124684656
:103DA00003218470C9021D46018008F02EFC002208
:103DB0006946012002F093FE064608F02AFC002E18
:103DC0005CD16846152184704902018000271C21BE
:103DD00001A808970CF082FE01200146103108A8C6
:103DE00001700020014608A841708178F920014047
:103DF000891C214308A88170684601790226314355
:103E0000017114998185C7851421018608A80A903B
:103E100013980D906846099008F0F7FB0EAA09A9BF
:103E200001A802F044FC074608F0F3FB002F02D083
:103E3000384617B0F0BD844F68463968008F488017
:103E4000684684708549018008A88078F921084077
:103E5000801C4108490008A881706846868506864E
:103E600015A80D9008F0D1FB0EAA09A901A802F02F
:103E70001EFC064608F0CDFB002E01D03046D8E7E8
:103E800068463968008F8880744968468470C91C08
:103E90000180298810A8018069884180A9888180D3
:103EA000E988C180082168468185018610A80D90A7
:103EB00008F0ABFB0EAA09A901A802F0F8FB044622
:103EC00008F0A7FB002C01D02046B2E7684639680D
:103ED000008FC8800020ACE770B504465E48C4215E
:103EE000A8300CF0FBFD5C48574DA830002128603D
:103EF000C943A0308182002686750120FFF70CF8A7
:103F00002868BF210E54014609310830FEF737F901
:103F1000296808462C311C30FEF78CF9002C26D07D
:103F20002868B0210C501E21A181217A8F221140D6
:103F30001031217201461731216108396161491C34
:103F4000A1610839E161491C21629A3161628739B6
:103F50002160103161601339E162C91E21637D3136
:103F600021643039616310318330A163E06370BD37
:103F700035480068A030807F042801D000207047B9
:103F80000120704730B504460520800395B0844277
:103F900008D3012080043249201A884202D33148D4
:103FA000844202D3102015B030BD27490868A030E4
:103FB000807F012801D00820F5E7FFF7D9FF00280E
:103FC00001D01120EFE70D68012028722278002A25
:103FD00008D025491720012A0AD0022A1FD0032A17
:103FE00025D121E03220694608700020287205E0C2
:103FF000A2799209032A1AD16946087000A80622FC
:10400000611C02300CF00BFD28460622611C0930B1
:104010000CF005FD09A9684607F09CF8C3E7A279F2
:104020009209012A03D1E7E7A2799209E4D0084670
:10403000B9E707214907012210B5411892039142BF
:1040400014D3102010BD0000280000201C330000F5
:1040500061050000FFFF000044100020012A00005D
:104060000000FC1F0040002002320000FE49024612
:1040700009680B7A0931184600F0C9FD0020E1E714
:10408000FFB599B00446002069460871087208A976
:104090000874087515461E46052001218003890411
:1040A000F24AF34B002C06D084420DD3671A974294
:1040B0000AD39C4208D2002D09D0854204D3681A45
:1040C000904201D39D4202D310201DB0F0BD204686
:1040D000284318D01F270CAB01AA009720461A9935
:1040E000FEF7C8FF0028F0D10DAB02AA31462846E2
:1040F0000097FEF7BFFF0028E7D16846007AC107A6
:1041000003D00A20E1E70720DFE7800705D56846EE
:104110000079800701D50B20D7E7FFF729FF00289A
:1041200001D01120D1E703AF002C13D01A2069462B
:1041300008731A9888732146F81C1A9A0CF06FFCC1
:104140000EA903A807F006F8002803D0C949CA48F9
:104150000CF0E5FD002D13D0202168460173867315
:1041600032462946F81C0CF05AFC0EA903A806F0AA
:10417000F1FF002804D0C048BE490C300CF0CFFD40
:10418000B94908A80968007C087000209DE7F0B5CF
:10419000044695B00020149005208003844270D31B
:1041A00001208004B14F201AB8426AD3B04884423B
:1041B00067D2207801280CD10521606889038842E4
:1041C0005FD301218904411AB9425AD3A8498842D0
:1041D00057D200F017FD022809D000F013FD032884
:1041E00005D0A1480168BE20405C012802D008200B
:1041F00015B0F0BDC120405C0A22104201D1400739
:1042000001D51120F4E7207801280BD0228A9B4D9C
:104210001346203BAB426FD2022801D0032801D1C4
:10422000A02A69D30A789646D20702D0628AB42AB5
:1042300062D8002806D0012808D0022804D003281C
:104240005AD110E0002512E0022510E06068012537
:10425000007800280BD0012807D0022805D00328B9
:1042600003D08748C4E7032501E001201490207A99
:10427000002807D0012807D0022807D003283BD107
:1042800006E037E0002604E0012602E0022600E016
:104290000326002D01D0022D3FD1002E3DD0E06835
:1042A000002829D00279002A27D0082A24D8037BA5
:1042B0009C46082B20D8002A0CD0052302689B03BB
:1042C0009A4217D301239B04D31ABB4212D3684BE3
:1042D0009A420FD26246002A13D0806805229203C8
:1042E000904207D301229204821ABA4202D3604A52
:1042F000904206D310207BE766E0037B002B63D05F
:10430000D5E77046800702D05D48401E70E7022D59
:1043100003D1022E58D0032E56D0182268460270C0
:10432000228A4280228A82808571087A01270028A9
:1043300031D0012833D050484E49C9300CF0EFFC41
:10434000694614980872217802A80130012929D001
:1043500006210CF0C1FB07216846C173067409A948
:1043600006F0F8FE0028C6D10A206946087009A99F
:10437000684606F0EFFE0028BDD139206946087076
:1043800009A9684606F0E6FE0028B4D1002D0FD03A
:10439000022D0DD051E000206946C871D0E7684673
:1043A000C771CDE761680622491C0CF038FBD2E7E3
:1043B000002E42D0002623E00168B0000958097899
:1043C000002903D0012905D0072011E700216A4602
:1043D000917001E069468F70E1680622096809580A
:1043E00000A8491C03300CF01AFB0B20694608702A
:1043F00009A9684606F0AEFE002887D1761CF6B201
:10440000E0680179B142D7D8002612E08068B10097
:10441000415800A8102202300CF001FB3A206946F6
:10442000087009A9684606F095FE0028CDD1761CD3
:10443000F6B2E068017BB142E8D81B216846017002
:10444000877009A906F086FE0028BED108A8407929
:104450001B2803D007490B480CF061FC002D1BD032
:10446000012D15D0022D0FE0280000200000FC1FB8
:10447000004000201C330000DB060000E13F00008C
:10448000023200000608000019D0032D07D116E003
:104490000320FEF741FD10E00320FEF73DFD608A9A
:1044A00000280AD08200002108460AF0D4FB002828
:1044B00003D0FC49FC480CF032FC002098E60220B6
:1044C000EBE770B586B006460C000CD005208003E3
:1044D00084424BD301208004F449201A884245D3FA
:1044E000F348844242D2F34DBF212868095C022977
:1044F00003D0C0304078400702D5112006B070BD0F
:10450000002C04D02046FEF789FD0028F6D1304665
:10451000FEF74FFD012803D0022823D0E648EDE73F
:1045200021001BD1082069468882286801ABC08819
:1045300005AA002102F088FE0028DFD16846808AA3
:10454000082801D00320D9E7684681888181C18885
:10455000C181018901824189418203A9304601F06C
:104560008EFBCBE7002C01D00620C7E71020C5E763
:1045700070B50D460446FEF71CFD012803D0022845
:1045800001D0CD4870BD29462046FEF70CFE70BD17
:1045900000B50146283095B02D2805D208462730B1
:1045A000132801D3880702D0072015B000BDFFF7FC
:1045B000DFFC002801D01120F7E7BE483122006857
:1045C000417068460270817009A906F0C3FDECE7EE
:1045D00001B582B0022069460880B64802AB006887
:1045E0006A468088002102F0B6FC694609880229E3
:1045F00000D003200EBD38B502216A461180072184
:104600004907012241189203914201D3102038BD7D
:10461000A849034609686A468C880021204602F0B2
:1046200013FE694609880229F1D0032038BD3EB542
:10463000044608206946088005208003844208D388
:10464000012080049949201A884202D39848844264
:1046500001D310203EBD2046FEF7E0FC0028F9D132
:104660002088694688806088C880A0880881E088A2
:104670004881904801AB00686A46C088002102F07A
:104680006AFC694609880829E4D003203EBD1FB5AD
:10469000044608206946888105208003844208D3A7
:1046A000012080048149201A884202D38048844234
:1046B00002D3102004B0C5E47E486B46006803AA0C
:1046C000C088002102F0C0FD0028F3D16946898925
:1046D000082901D00320EDE7694609882180694651
:1046E0004988618069468988A1806946C988E180D6
:1046F000E0E7FEB50546052080030E4617468142D9
:1047000008D301218904694A731A934202D3684B82
:104710009E4201D31020FEBD142F01D90C20FEBDF6
:10472000644C85422AD3681A904227D39D4225D2F1
:10473000206801A9408802F0C0FB0028EFD128784A
:1047400069464871206801A9408802F099FB002859
:10475000E5D169460090087802210843694608704F
:104760004979090703D00821084369460870206881
:104770006946408802F02CFB0028D0D169460F81A1
:1047800020683346408802AA002102F0E4FB694613
:104790000989B942C3D00320FEBD38B50C460721B4
:1047A0004907012243189203934202D261189142B1
:1047B00001D3102038BD21886A46118000290BD012
:1047C0003C49034609684D880021284602F03CFD1B
:1047D00069460988218038BD0C2038BD10B50C46CB
:1047E0000521890386B08C4208D3012189042F4A10
:1047F000611A914202D32E498C4202D3102006B096
:1048000020E42C490968A031897F052901D00820BE
:10481000F5E7FEF7CEFB012803D0022826D0264874
:10482000EDE720881E2801D20720E8E70620FEF7E2
:1048300073FB05216846017000798108A078890022
:10484000C007C00F014368460171FB200140A078FA
:104850008007C00F80000143684601712188C18034
:1048600008F0C3F90028CAD00320C8E70620C6E72D
:1048700070B586B00D461446FEF79BFB012803D0A9
:10488000022801D00C4839E60A4EC0213068095C84
:10489000C90713D0BE21095C04290FD0002D0FD009
:1048A0005FE000001C3300001E0800000000FC1F39
:1048B00000400020280000200130000008201DE6F4
:1048C000052189038C4208D301218904DE4A611A3B
:1048D000914202D3DD498C4201D310200EE6A1782B
:1048E000C906490F04290CD8E178072909D31029F2
:1048F00007D822798A4204D3102A02D822881E2A95
:1049000001D00720FAE58030026BF7239172026B29
:104910002179D172026B117A1940A3789B06DB0FC3
:10492000DB0019431172026B21889181026BA3781D
:10493000517ADB0789088900DB0F19435172FB2389
:104940001940A378026B9B07DB0F9B001943517240
:10495000006BA278017AD206C908C900520F114330
:1049600001720B2069460870852D25D008DC002DCA
:104970001AD0812D1AD0822D1AD0832D08D119E09A
:10498000862D1BD0882D1BD0892D1BD08A2D1BD0A6
:104990000B2008710520FEF7BFFA684608F025F9DC
:1049A000002813D00320A9E50020F2E70120F0E75A
:1049B0000220EEE70320ECE70520EAE70620E8E71F
:1049C0000820E6E70920E4E70A20E2E73068C03083
:1049D000017849084900017000208FE570B59C4EB0
:1049E0000D46316886B0C03109781446090701D4F4
:1049F000082083E5FEF7DDFA012803D0022801D064
:104A000094487BE505208003844208D3012080047C
:104A10008D49201A884202D38C48844201D3102049
:104A20006CE5022D03D0012D03D0072066E502209E
:104A300000E001206946087103200294087068466E
:104A400008F0D3F8002801D0032057E53068F7229A
:104A5000C03001781140017000204FE570B594B06E
:104A60000E461446FEF7A5FA012804D0022802D00B
:104A7000784814B070BD764D2868C0300078800743
:104A800001D40820F5E7002C01D00720F1E7FFF75B
:104A90006FFA002801D01120EBE7002E1CD02D2149
:104AA000684601702C68B420015B68464180102282
:104AB000B11C01A80BF0B3FFE07EFB210840B17CE4
:104AC000C907490F0843E076B07C81214008607631
:104AD000A07D0843A07507E02E2168460170286874
:104AE000A030818A6846418009A9684606F032FBF9
:104AF0002968FD23C0310A781A400A70B9E710B559
:104B00000C46FEF756FA012803D0022801D051487E
:104B100010BD05208003844208D3012080044A4947
:104B2000201A884202D34948844201D3102010BD84
:104B30002046FEF74DFA002010BD30B595B0044672
:104B4000FEF737FA012804D0022802D0414815B0F8
:104B500030BD3F4D2868C030C078002801D0082003
:104B6000F5E7FFF705FA002801D01120EFE738211B
:104B700068460170448001240471447109A906F05B
:104B8000E9FA002801D00B20E1E72868C030C470A2
:104B90000020DCE730B595B00446FEF70AFA01289C
:104BA00003D0022801D02B48D1E7294D2868C03016
:104BB000C078002805D0FFF7DBF9002803D01120CA
:104BC000C5E70820C3E73821684601704480002407
:104BD0000471447109A906F0BDFA002803D01E49EA
:104BE0001E480CF09CF82868C030C4700020AEE766
:104BF00017480068A030807F052801D30120704746
:104C00000020704712480068A030807F704708B5C8
:104C10001346002806D012A00068009048796A4622
:104C20008009105C18700622581C0BF0F8FE08BDB5
:104C300010B50446FDF7A5FB922101700ECC08309B
:104C40000EC0FDF7BAFB10BD0000FC1F00400020A5
:104C500028000020013000001C330000CC0A0000B6
:104C60000302FF01FFB50E4681B001991446CA78D0
:104C7000214635460A3110350A980091022A0AD099
:104C8000032A48D0052A7DD02520F8A100010CF088
:104C900046F805B0F0BDF7890A2179430A31198039
:104CA00031210180002CF4D0707A002804D0FF203C
:104CB000EEA195300CF033F870680088A0800020D9
:104CC000E080317B2781891FCEB2009C1AE02888C2
:104CD0006968208048780A7800021043E080C8782C
:104CE0008A78000210432081A21C091D304609F079
:104CF00055FB002E01D0002802D0002020716080DA
:104D000008350A3438467F1EBFB20028DFD101992A
:104D10000020C870BDE7F7890A2179430A3119805C
:104D200032210180002CB4D070680088A08000205F
:104D3000E080307B2781401FC6B2009C43E0696859
:104D40002A880878E2802279C30752085200DB0FD4
:104D50001A43FD231A408307DB0F5B001A43FB2332
:104D60001A404307DB0F9B001A43F7231A4003073F
:104D7000DB0FDB001A43EF231A40C306DB0F1B01D6
:104D80001A4300E025E0DF231A408306DB0F5B01B6
:104D90001A43BF231A404306DB0F9B011A432271BB
:104DA000C00960718A784B7810021843208122462E
:104DB000C91C304609F0F2FA002802D00020A07089
:104DC000208008350A3438467F1EBFB20028B6D18D
:104DD0009DE7317BF789891E89B2009108317943BB
:104DE0000C31198034210180002C93D07068008828
:104DF000A0800020E0802781009860810C34F800BA
:104E000006190BE028882080666069683046009AA1
:104E10000BF005FE009808350834361838467F1E1A
:104E2000BFB20028EED172E7F8B50546C0781E463D
:104E30000C46069F03000CF072F809C00614313EC0
:104E40004B6B909DC0000092207B082805D0032862
:104E500003D086A18A480BF062FF0A203080302000
:104E60000BE00092207B042804D085487FA11C30F1
:104E70000BF055FF0A203080312038800098002840
:104E800045D06068018800988180607A0099FF3081
:104E90000130C88000990020088137E00092207B13
:104EA000042804D0764871A137300BF038FF0A206F
:104EB00030803220E1E70092207B022804D0704845
:104EC0006AA152300BF02BFF0A2030803320D4E748
:104ED0000092207B042804D0694864A16C300BF058
:104EE0001EFF0C20308034203880009800280ED01F
:104EF0006068018800988180607A0099FF300130F5
:104F0000C88000990020088100994881E870F8BDA8
:104F10000092207B052806D0062804D0584853A1CB
:104F200088300BF0FCFE0E20308035203880009851
:104F30000028ECD06068018800988180607A009930
:104F4000FF300130C8800098E1890181009900207C
:104F500088810099AA884A81D8E70092207B072897
:104F600004D0474841A19E300BF0D9FE0A20308082
:104F7000362082E70092207B0C2804D040483BA1D9
:104F8000B2300BF0CCFE0E203080372038800098F5
:104F90000028BCD06068018800988180607A009900
:104FA000FF300130C8800098E1890181009900201C
:104FB0008881009901228A72A8E731482BA1EB3041
:104FC0000BF0ADFEF8BD70B5054600780C4608261E
:104FD00003000BF0A4FF10593232221A36090909D6
:104FE00009090909090909596878002803D01FA18E
:104FF00024480BF094FE002C03D1E1201BA180007B
:1050000008E060783043607020E0002CF9D1E320A4
:1050100016A180000BF083FEF3E7002904D0E52001
:1050200012A180000BF07BFEFDF7ABF9044640783F
:1050300030436070FDF7C1F908E012480BA11B3046
:1050400002E0104809A120300BF069FE002C0AD0C4
:105050006078000707D58320207020465822294613
:105060000830FBF7A7F8002070BD00007372635C86
:1050700067617474635F636F72652E630000000084
:105080006F02000083030000FD49FE48DCE710B515
:105090000020FD4CFD490346C2008C525218401CB2
:1050A0000006D370000EF7D010BDF849088001202B
:1050B000887000207047F54900208870704710B54F
:1050C0000020F249C043088006F07EF810BDF7B515
:1050D00084B00546002768460781878068680C46CB
:1050E000008800F06FFB0646287A032806D0002EC1
:1050F00004D1E448E24938300BF011FE2A7A214607
:10510000D21E0E3102A8009113000BF008FF0DD241
:10511000CAE31808A920455E10B18383E30000901C
:1051200001AB22462946304600F069FBD7E00090EB
:1051300001AB22462946304600F099FBCFE00090B3
:1051400001AB22462946304600F0E5FBC7E0F07887
:10515000062804D0FF20CA491A300BF0E0FDE88988
:1051600069460E30888035200881002CDED0687AB0
:10517000002803D0FF20C249223023E0686801885C
:10518000A180E780A9892181B1886181E989A18114
:10519000EA89296900983AE0F078062804D0FF20CF
:1051A000B74934300BF0BBFDE88969460E30888082
:1051B00035200881002CB9D0687A0028DED0FF2085
:1051C000AF493C300BF0ABFDD8E7F078072804D0AE
:1051D000FF20AB494E300BF0A2FDA88969460A308A
:1051E000888036200881002C79D0687A002804D085
:1051F000FF20A34956300BF092FD68680188A1801A
:10520000E780A98921812046AA890A3029690BF003
:1052100006FC44E0E88969460E3080B23822888076
:105220000A81002C53D0687A002804D0FF209449CA
:105230006D300BF074FD68680188A180E780287AE2
:105240000E280BD00221A172A9892181E989A181AF
:10525000EA89296900980BF0E2FB40E00121F2E7BE
:10526000009001AB224629463046FFF7FBFC36E0B2
:10527000F078082803D0824985480BF050FD0E21B4
:105280006846818037210181002C28D06868018818
:10529000A180E780A9892181A7810120A072F770F0
:1052A0001DE0009001AB224629463046FFF7BCFDC9
:1052B00015E009206946392288800A81002C06D031
:1052C0000120E08071480188A180277207E00699DB
:1052D000088010E06B486A496C300BF020FD68468E
:1052E000069980880880002C05D0684600892080B7
:1052F000684680886080002007B0F0BDF7B594B0A4
:105300000F461546149800F068FA040007D00320F1
:1053100000F048FB022804D3112017B0F0BD5D480F
:10532000FBE71720694601260883002D0ED00321D4
:10533000684601711021018210AA04A9284605922D
:1053400009F068F800280DD00720E6E70821684634
:10535000017100210781C943418105218673C9027A
:1053600081810CE0A878A0712888A080684605217A
:105370008673C902818100210781C943418109AA3D
:10538000023206A901A805F057FF002802D000F05C
:105390002EFAC2E707A800906846038B0422032177
:1053A000149800F015FB0028B7D1E670B5E770B58A
:1053B00092B00C0006460BD000F00FFA050009D0A1
:1053C000032000F0EFFA022806D3112012B04BE6BA
:1053D0001020FBE72F48F9E7172168468180042158
:1053E0000172218881816188C181012181742A49EA
:1053F00001820AAA023201A902A805F01DFF0028B5
:1054000002D000F0F4F9E1E708A80090684683882C
:1054100004220321304600F0DBFA0028D6D1022115
:10542000E970D3E770B592B00C0006460AD000F0E0
:10543000D4F9050008D0032000F0B4FA022805D3FF
:105440001120C3E71020C1E71248BFE717216846C3
:10545000818004210172218881816188C1810121BB
:1054600081740D490AAA491C0182023201A902A8CD
:1054700005F0E2FE002811D000F0B9F9A6E700001F
:105480006C500000A7030000FFFF00002C0000206C
:1054900059020000013000000228000008A8009016
:1054A0006846838804220321304600F091FA0028E0
:1054B0008CD10321E97089E770B592B00C000646E3
:1054C0000AD000F08AF9050008D0032000F06AFA3B
:1054D000022805D3112079E7102077E7F94875E70E
:1054E000022168460172218881816188C18117216A
:1054F00081800AAA023201A902A805F09DFE0028B7
:1055000002D000F074F961E708A80090684683882B
:1055100004220321304600F05BFA0028DBD104218D
:10552000E97053E7F0B591B00E46140007460BD072
:1055300000F053F9050009D0032000F033FA0228E7
:1055400006D3112011B0F0BD1020FBE7DD48F9E7CC
:105550001721684681800421017221888181618838
:10556000C181B1788174318801820AAA023201A90D
:1055700002A805F061FE002802D000F038F9E1E74A
:1055800008A800906846838804220321384600F06A
:105590001FFA0028D6D10521E970D3E7F7B592B0FC
:1055A0000E461546129800F018F9040007D00320A3
:1055B00000F0F8F9022804D3112015B0F0BDC1485D
:1055C000FBE70627002D12D0684607728681C58149
:1055D000A5801720694688800AAA023201A902A87C
:1055E00005F02AFE002807D000F001F9E5E70521C3
:1055F000684601728681EBE708A8009068468388B8
:1056000004220321129800F0E3F90028D5D1E770B5
:10561000D3E7F7B592B00D0016460BD0129800F004
:10562000DCF8040008D0032000F0BCF9022805D300
:105630001120C2E71020C0E7A248BEE7072768464E
:10564000077286811721049581800AAA023201A976
:1056500002A805F0F1FD002802D000F0C8F8ACE780
:1056600008A800906846838804220321129800F05D
:10567000AFF90028A1D1E7709FE7F3B593B00C0014
:1056800013D02078022808D0012806D0032813D090
:10569000042811D005280FD00CE0A068002804D001
:1056A000E088142803D90C2087E7102085E7A0881C
:1056B000002803D0072080E706207EE7139800F03B
:1056C0008CF8050007D02078012812D0022804D0D9
:1056D0007D497E4841E07B486FE7092168460172B9
:1056E00061888181E188C181A0680826072704902C
:1056F0000AE00C216846017261888181E188C181DC
:10570000A068032602270490304600F04BF9B84207
:1057100002D36C48801C50E71720694688800AAA8B
:10572000023201A902A805F087FD002802D000F08E
:105730005EF842E708A80090684683880422314654
:10574000139800F045F90028AED12178012908D03E
:105750000229A9D05D485C4922300BF0E0FA08200C
:105760002BE70821E97028E730B591B00C460546D3
:1057700000F033F8002808D0032000F013F90228C5
:1057800005D35048801C11B030BD4E48FBE70D21B9
:105790006846017104811721018309AA023206A912
:1057A00001A805F049FD002802D000F020F8EAE742
:1057B00007A800906846038B04220321284600F0C6
:1057C00007F9E0E74249884205D042490988814209
:1057D00001D1404870470020704710B5FFF7F2FF35
:1057E000002802D08178C90700D1002010BD002810
:1057F00002D0012801D00320704711207047F8B56E
:105800000646C0780D4614461F46012803D02E498F
:10581000A5200BF084FAA8893021C0000A30388016
:105820000698002C018021D0687A002803D02649F0
:10583000B1200BF074FA686800210088A080E18034
:10584000A88920810A460DE0D000B37900190373BE
:10585000B388438193005B19DF89C7811B8A521C7F
:10586000038292B220899042EED8F170F8BDFFB564
:1058700087B00798109FC0780E4615461C46012831
:1058800003D01149CA200BF04AFAF089C0000A304F
:10589000208030203880307B001FC0B20090002D67
:1058A00037D0707A002803D00749DA200BF037FA96
:1058B00070680088A8800020E880F089288100278F
:1058C00021E00000013000006C50000005060000DF
:1058D000FFFF00002C000020F800441980190590FB
:1058E000224641690A32009808F058FD002802D08B
:1058F00000202073608105987F1C008AE081059854
:10590000BFB2408A20822889B842E5D80799002092
:10591000C8700BB0F0BDF8B50646C0780D46144609
:105920001F46042803D01849FA200BF0F8F9A8897B
:10593000062148430A30388033210698002C018024
:1059400021D0687A002804D0FF200F4906300BF0E0
:10595000E6F9686800220088A080E280A88920819A
:1059600013460CE018460621484341190019CF8917
:1059700047818F7C8773098A5B1C81819BB2208958
:105980009842EFD8F270F8BD6C500000014600203C
:10599000F84A02E0401C082803D24300D35A8B4245
:1059A000F8D1704730B50446F24A0020163A117912
:1059B00053790AE05518AD79A54201D1401CC0B217
:1059C000491CC9B2102900D100218B42F2D130BD4F
:1059D000FFB5E84881B0163841790A9C491CCDB220
:1059E0001E46102D00D10025E24816380079A84245
:1059F00002D1042005B0F0BD0820FFF7D3FF074611
:105A0000072804D9FF20DCA1A5300BF088F9029803
:105A1000082801D1072F17D001982080301D608001
:105A2000002060712071E68003982081204605F0F7
:105A3000B5FB00280AD0CF48029916384379821D59
:105A4000995445710020D5E7D048D3E7FF20CAA17B
:105A5000B7300BF064F90320CCE7F0B58DB0044605
:105A60000025684605718C4616460620FFF79AFF0A
:105A700000281CD121780127C807002801D013294C
:105A800017D9684687766178C17602218183C583FC
:105A900004A8009070680C23008805220621FFF7F7
:105AA00097FF002803D0B4A185200BF038F90DB082
:105AB000F0BDB04816380278002AF8D042786378F2
:105AC0009A42F4D1012917D0132918D16146062929
:105AD00015D10570012009F03BF96846077170681F
