:020000040000FA
:10000000E0130020F1050000F90500002395000031
:1000100000000000000000000000000000000000E0
:1000200000000000000000000000000071950000CA
:100030000000000000000000FF05000001060000B5
:10004000ED010000EF010000FF110000F7010000CA
:100050000000000000000000F901000000000000A6
:1000600003060000FB010000FD010000FF0100008D
:100070000702000009020000110200009533000091
:100080000000000013020000150200000000000044
:1000900017020000190200001B0200001D020000F0
:1000A0001F02000027020000000000000000000006
:1000B0000000000000000000000000000000000040
:1000C00000F002F800F040F80CA030C808382418FE
:1000D0002D18A246671EAB4654465D46AC4201D180
:1000E00000F032F87E460F3E0FCCB6460126334272
:1000F00000D0FB1AA246AB4633431847E8950000F0
:1001000008960000103A02D378C878C1FAD852078E
:1001100001D330C830C101D504680C6070470000BD
:100120000023002400250026103A01D378C1FBD813
:10013000520700D330C100D50B6070471FB5C046D1
:10014000C0461FBD10B510BD09F0AAF91146FFF752
:10015000F5FF00F025F809F0C2F903B4FFF7F2FF4C
:1001600003BC09F0C7F9000070B505460C461646F9
:1001700002E00FCC0FC5103E102EFAD2082E02D38B
:1001800003CC03C5083E042E07D301CC01C5361F9E
:1001900003E021782970641C6D1C761EF9D270BDB5
:1001A0008CB000F04FF9072001F0E0F826216846F6
:1001B0004180062101705921818001F0D5FD01F0B7
:1001C000DFF800F0B6F8342168460172012181722F
:1001D0001021C17202A802F03FFD002803D114A132
:1001E0003B2009F098F900F0BDF8FCE7FEE710B5F8
:1001F00000F0F4FC10BDFEE7FEE7FEE7FEE710B5F9
:1002000001F005FD10BDFEE710B501F0A4FA10BD28
:10021000FEE7FEE7FEE7FEE7FEE7FEE7704710B504
:1002200001F032FD10BD10B501F0FEFB10BD000065
:100230007372635C64685F6D61696E2E63000000B9
:1002400010B50C4600280AD001280CD002280ED088
:10025000032810D073A1522009F05DF910BD206869
:1002600003F039F80AE0206803F015F806E020688A
:1002700003F000F802E0206803F01FF8206010BDD2
:1002800010B56B48044602DF002810D068490222EE
:100290003F314878104348700421204600F0A5FE05
:1002A000002805D05FA1732009F035F9012010BDA9
:1002B00000F0C9FEFAE710B55D48044603DF0028E8
:1002C00010D05B4902223F314878104348701146F4
:1002D000204600F08AFE002805D052A1862009F0B1
:1002E0001AF9012010BD00F0AEFEFAE7504910B532
:1002F00041390C4608708034A078002803D049A109
:10030000912009F008F90120A07010BD10B5484CEB
:100310003F34E078002803D042A1972009F0FBF891
:100320000120E07010BD10B53EA19D2009F0F3F84A
:1003300010BD3F4810B500213F308170C1700121D0
:1003400041700021092000F0C0FD402000F049FE6E
:10035000384800F03DFE384800F03DFE374800F0D8
:100360003DFE10BDF8B5324C00253F34A078012881
:1003700004D1A5706078042108436070E0780128FA
:1003800004D1E5706078FD21084060706078284FE6
:100390004007413F012600280DDA397801292DD088
:1003A00002292ED01FA1DA2009F0B5F86078FB21D0
:1003B0003043084060706078C1070DD041070BD40E
:1003C000400840006070781C00F0CEFD00281BD073
:1003D00014A1EC2009F09FF86078052108420CD1A7
:1003E00080070AD416480178002910D00570FFF75D
:1003F00062FF002801D1FFF743FFF8BD781C00DF42
:10040000D4E7781C01DFD1E700F0D0FDE4E7067007
:10041000FFF736FF0028F0D1FFF74DFFF8BD70471A
:10042000704700007372635C64682E630000000014
:10043000FD000020ED0200000D0300002703000076
:100440000000002003484269FF2109040A43426179
:10045000C1607047000500508307FF22DB0E9A4001
:100460008907090E994000280BDA0007000F0838A9
:1004700083085A489B001818C36993430B43C36110
:100480007047830856489B001B1818689043084320
:100490001860704770B5534A01215162516152484A
:1004A000002303608405216000BF00BF00BF00BFC0
:1004B00000BF00BF00BF0568002DFCD09161436004
:1004C000A16000BF00BF00BF00BF00BF00BF00BFF2
:1004D00041680029FCD0454801F016FA03210020AC
:1004E000FFF7BAFF03210120FFF7B6FF0321022027
:1004F000FFF7B2FF03210846FFF7AEFF03210420F8
:10050000FFF7AAFF03210620FFF7A6FF032108201B
:10051000FFF7A2FF03210920FFF79EFF03210A2016
:10052000FFF79AFF03210B20FFF796FF03210C2012
:10053000FFF792FF03210D20FFF78EFF03210E200E
:10054000FFF78AFF03210F20FFF786FF032110200A
:10055000FFF782FF03211120FFF77EFF0321122006
:10056000FFF77AFF03211420FFF776FF0321152000
:10057000FFF772FF03211620FFF76EFF03211720FC
:10058000FFF76AFF03211820FFF766FF03211920F8
:10059000FFF762FF00210120FFF75EFF0021182016
:1005A000FFF75AFF00210B20FFF756FF0221192009
:1005B000FFF752FF02210D20FFF74EFF0221C81F57
:1005C000FFF74AFF0221081FFFF746FF0121881E9F
:1005D000FFF742FF70BD7047FEE7000000ED00E04E
:1005E00000E400E0000500400001004006E9008052
:1005F0000748804707480047FEE7FEE7FEE7FEE7BB
:10060000FEE7FEE704480549034A054B7047000032
:1006100095040000C1000000E00F0020E01300205E
:10062000E00F0020F84881690122520611438161E0
:100630007047F649002008607047F3484169F44A62
:100640001140F44A891841618169090A090225317A
:100650008161704770B5FF20EB4B0130586103207A
:1006600000049861FFF7E9FFEB489863FF2004302E
:1006700058630024DC6001201863DC62E748032132
:100680000160E748C46004614460E64A1460446164
:100690008461E54A102050601961DB4995204031A2
:1006A0004860DA480460FFF7BDFFE04804210161BB
:1006B00002218160DF4DDE48686203F0D7FB2862CB
:1006C000DB484030E863D648001DA863D849D948C4
:1006D000443140304160D24910310160D4480C307F
:1006E000686303F0C3FB2863D04840300460446073
:1006F0007F206860D0488470447044748472846140
:10070000203002F0CFFF002804D0FF20CBA16430BE
:1007100008F001FF70BDC849012008707047C64944
:1007200000200870704770477047B7494031002873
:10073000086802D00122104301E040084000086030
:10074000704770B50C46BC4D01460622E81C08F007
:1007500085FD6C7270BDB848407C7047B64A917098
:1007600050707047F3B5A94D0746286881B0C04363
:100770000006000E3BD00024012601E0641CE4B218
:1007800028683146A140084202D0082CF6D301E087
:10079000082C04D3FF20A9A1A73008F0BCFE78796B
:1007A0003A79010299481143A2004038101800908C
:1007B0000162781C08F0B3FD01023878014300980B
:1007C00001600298002813D0012804D0FF209BA1CB
:1007D000B53008F0A0FE28682146083132468A402C
:1007E000104328602868A640304328600120FEBDE1
:1007F00028682146083132468A409043F1E710B517
:100800008107890F1DD181100A317F480B0008F044
:10081000D1FE0C151818181813110F0D0B09071815
:1008200004210CE000210AE0FC2108E0F82106E0A8
:10083000F42104E0F02102E0EC2100E0D821C160C5
:1008400010BDFF207DA1E73008F065FE10BD7A489D
:10085000007F704710B56C4C616A090A0902616239
:10086000616AC27811436162E169C9B2E16108F06D
:1008700056FDE16900020843E06110BD252808D05B
:10088000262808D0272808D041000A2807D8091DA3
:1008900006E0022105E01A2103E0502101E0891D54
:1008A000C9B2594A9160584940314861704770B5A2
:1008B000614CA07200F05DFAA07AC0073CD0574DA1
:1008C0002868800703D45DA1604808F024FEA07A60
:1008D00001061AD5800707D54F2058A1C00008F09F
:1008E0001AFEA07A000610D52078524E012813D0A7
:1008F000002804D0554851A1113008F00CFE48489A
:10090000FC38706103F0B2FA3061A07A800713D529
:100910002868C00707D101E04D48F2E74B4847A1DE
:10092000193008F0F8FDA07A4007286801D50421A5
:1009300000E008210843286070BD70B53E490124DD
:100940000978434D012905D000290FD089203BA10A
:10095000800012E0002805D0012815D03B4837A1BF
:1009600068380AE000F005FA2C6070BD002807D056
:10097000012809D0354831A1583808F0CCFD70BDA8
:1009800000F0F7F96C6070BD8120FFF790FF70BD3B
:10099000F8B5254C0C206168C906CD0F1026A6605D
:1009A0001F4900220A612A4F01233B610BE000BF6F
:1009B00000BF00BF00BF00BF00BF00BF00BF401EA0
:1009C0000006000E06D00B69002BF0D00A6100284B
:1009D00006D100E00A611D4818A13F3808F09BFDD0
:1009E000002D00D06660F8BD0748816901225206DB
:1009F00091438161704710B508F091FC00020249F3
:100A0000000AC86310BD00000015004040160040F9
:100A1000F0FFF0FF060002005B060000001200403D
:100A20000011004000140040001300400085004009
:100A30000080004000F50140400100207372635CBB
:100A400068616C5F7263732E6300000076020000C1
:100A500000100040E8484169E84A1140E84A891816
:100A600041618169090A09021F3181617047E549C5
:100A7000022008607047E34902208039086070470F
:100A8000E1490870704710B5E04802F00FFE0028F9
:100A9000B8D0DF49DF4808F03EFDB3E710B5DB48CA
:100AA00002F01BFEAEE7D44948607047D74910B545
:100AB0002039D94B0022C8601A6089690818D749C3
:100AC000086000F05DF99DE7D04810B5C2212038DC
:100AD000C160D14A002111608069D049C2300860EC
:100AE00000F04EF98EE7CE4900208861C861C74901
:100AF0002039C860C94908607047CA490120486068
:100B0000C249002020398861704770B5C64908691C
:100B1000012806D00024BD4A203A1078012802D0CE
:100B200004E04024F7E7CB68012B04D000232343E3
:100B3000012802D004E02023F9E74C68012C05D0FD
:100B400000241C43B94B002802D007E01024F8E72A
:100B50001D68012D02D1CD68012D04D0002525434B
:100B6000002802D007E00825F9E71C68002C02D114
:100B7000CC68012C05D000262E43A74C002802D0BB
:100B800004E00426F8E72568012D04D0002535434C
:100B9000002802D004E00225F9E74868012800D0C7
:100BA00000202843A24D2E683606360E02D04E692C
:100BB000012E00D0002616772D682D062D0E02D0AE
:100BC0008D69012D00D0002555770022CA600A6189
:100BD0004A601A604A618A61226070BDF8B5FFF709
:100BE00094FF04468D480168884D203D6961406846
:100BF000A8612A78804E002A08D1AA78002A05D058
:100C000073681B7813406A789A4309D000222A74CB
:100C1000E20707D0084606F03CFB0121A86908E07E
:100C20000122F4E7A10601D5022102E0A10702D5C5
:100C3000002106F039FB716806220931E81C08F032
:100C4000E0FA002807D1687A71680978C9098842F2
:100C500001D1012000E000206874204600F097F8E0
:100C60006948C2260078030008F0A4FC0504192E88
:100C70004D627300A00701D504F04EFA200703D59A
:100C80000120EE6004F047FA600703D50020EE6013
:100C900004F041FAA00661D504F03CFA5EE0A0073A
:100CA00001D504F03DFA200703D50120EE6004F0E1
:100CB00036FA600703D50020EE6004F030FAA00693
:100CC0004CD504F02BFA49E0A007BF27002802DA30
:100CD0003C4004F06CFF200704D53C400120EE604E
:100CE00004F07DFD600704D53C400020EE6004F078
:100CF00076FDA00602D53C4004F0DDFE60062DD551
:100D000004F069FD2AE0A00701D505F043FF2007A4
:100D100003D50120EE6005F0DCFE600703D500205E
:100D2000EE6005F0D6FEA00618D505F09AFE15E097
:100D3000200703D50120EE6002F0DEFA600703D53C
:100D40000020EE6002F0D8FAA00607D502F0D5FA2E
:100D500004E043202E49000108F0DDFB287800283C
:100D600006D1E868002803D0A96909182B4801605A
:100D7000F8BD304903200860294900200861704708
:100D800029492748F039C16123498161704770B50D
:100D90000546FFF7EEFF1D4C203CA17A080701D560
:100DA000680718D4C80602D5607F002813D18806CA
:100DB00002D5207C00280ED1480602D5607C002890
:100DC00009D000208A070026002A07DA4A0704D53E
:100DD0000122227002E00120F4E72670CA0709D040
:100DE000AA0705D4890705D5002803D0A80601D491
:100DF000FFF7CEFDA67270BD00150040F0FFF0FFBA
:100E00000500030080E100E00100002060010020F7
:100E10003C0A0000AB0200004081004040850040D9
:100E200000F5014000800040001100400014004027
:100E3000401600400012004070B5FA4C0646A079FA
:100E40000D46002805D0022803D0F7A1992008F00C
:100E500062FB0020266020716D1E65710120A0716B
:100E6000207C002802D0F4490420486070BDED4881
:100E70008079022801D0002070470120704770B5AA
:100E8000E84C0646A07B0D46002805D0022803D07A
:100E9000E5A1C52008F03FFB0020A66020736D1E71
:100EA00065730120A073E5493078C861207C002873
:100EB00002D0E1498020486070BDDA48807B02287A
:100EC00001D00020704701207047F3B5D54C81B0A8
:100ED000217501252574042000F016FDD6498420D3
:100EE0008860D74A936B0C209063D648006902262D
:100EF0004700D2490020002F04DA8860CD600E61DF
:100F0000032606E008268E600926CE600A260E61BA
:100F10000B264E619363227D002A02D0012A10D154
:100F20000EE0C04A20321070A071A073E0766076A7
:100F3000A062C24A20634032E062D5628A6900E062
:100F4000207404220A60019BBF4E9B00F3584B6241
:100F5000BE498860C861BE4885600560207C002865
:100F600001D0BC480260FEBD70B504461F20002CB5
:100F70001AD0AC4EF17E002915D13546203528789F
:100F8000042804D2FF20A8A13A3008F0C4FA287837
:100F9000032804D2FF20A4A13B3008F0BCFA0120B2
:100FA000F461F076002070BD122070BD10B59D4C2C
:100FB000E07E012804D0FF209BA1513008F0ABFA5D
:100FC0000220E076974801211A30FFF735FF10BD67
:100FD0009449C86270479349086370479149886291
:100FE00070479049203108707047F8B51F260546B4
:100FF0000F4600281FD08B4C607E002805D0FF20B4
:1010000089A1883008F087FA1BE0022F0CD0042F4A
:1010100004D0FF2084A17E3008F07DFA65620120B3
:101020002776607600260CE0E8780028F6D0FF20CE
:101030007DA17630F0E7FF207BA18E3008F06BFABF
:1010400012263046F8BD10B5764C607E012804D0DB
:10105000FF2075A1963008F05EFA02206076714894
:1010600001211830FFF70BFF10BD10B56D4C207C2F
:10107000002804D1FF206CA19F3008F04CFA6E4983
:1010800004208860E06A002804D1FF2066A1A23015
:1010900008F041FAE16AA07E88470020E07610BDA2
:1010A00010B5604C207C002804D1FF205EA1AA303E
:1010B00008F031FA604904208860A06A002804D151
:1010C000FF2059A1AD3008F026FAA06A804705201C
:1010D000E07610BD70B5534C607E042804D1FF202B
:1010E00051A1B53008F017FAFFF7E7FE002809D044
:1010F000607E022807D0032817D0FF204AA1D230F3
:1011000008F009FA70BD207E0325022805D00428C6
:10111000F8D1606A4178891C02E0606A8178091D13
:10112000C9B2FFF7ACFE657670BD206B002804D114
:10113000FF203DA1CA3008F0EEF9206B8047002067
:10114000607670BD70B5FFF792FE00282ED0354C4A
:10115000E07E052804D1FF2033A1DE3008F0DBF962
:10116000E07E022806D0032813D0042844D02EA104
:10117000394819E0A07E0325012804D0022805D0B3
:10118000FF20ED3035E00321E0692CE00421E06927
:1011900029E02449A07E04252031012807D0022817
:1011A00013D02D4820A10A3808F0B5F970BDE069C8
:1011B0000B788278D11C8B4204D3002A1CD0D1B288
:1011C000C01C10E08120800013E0E069C2788378C1
:1011D0001202D21892B20B78111D8B4207D3002A4B
:1011E0000AD0D1B2001DFFF727FEE57670BD1A4880
:1011F0000E38FFF755FF70BDFFF737FF70BD70B5B4
:10120000124DE8690026074C01282ED1EE6108F046
:1012100007FA207D002821D0012803A121D00E4803
:10122000163020E0640100207372635C68616C5FBB
:10123000756172742E630000002300400025004099
:101240004007005000050050749600000021004047
:101250000020004000E100E025020000FFF73AFF17
:1012600003E04720C00008F056F9A868012817D10C
:10127000A079012807D038484068400710D5912050
:10128000364980000FE0AE6008F0A2F9207D00280A
:1012900004D03249012804D0314804E0FFF752FF5E
:1012A00070BD2F48C01E08F036F970BD01B52D483D
:1012B000007D012804D02A482849113008F02BF974
:1012C00001216846FFF7DBFD2748C1690029FCD0F2
:1012D0000021C16108F0A4F9FFF7EFFD002804D157
:1012E0004F201E49C00008F016F908BDC0B2DDE766
:1012F0000020704708B51B48007D012804D0052058
:101300001649C00108F007F901216846FFF794FD6E
:10131000154881680029FCD00021816008F058F947
:10132000FFF7A5FD002804D10D480C493C3008F01A
:10133000F2F86846007808BD10B50A48007D01281B
:1013400004D007480549443008F0E5F806488068AD
:10135000012800D0002010BD00230040281200000A
:1013600055020000640100200021004010B5FFF785
:1013700071F902F068F802F033FA01F0CBFF10BD0A
:10138000CC49002008702031887308748874704735
:1013900070B5C84D044628780026002808D02C22B5
:1013A000A91C204607F05AFF0E2020702E702FE057
:1013B000C04D2035A87B002806D066700220207022
:1013C000E87BA070AE7323E0287C002806D066700E
:1013D00003202070687CA0702E7419E0204600F075
:1013E00055FF002815D0A87C012811D120780E289F
:1013F0000ED1607832280BD1E87C322808D1A07851
:10140000002804D1AC490622881F07F027FFAE74DC
:10141000012070BD70B5A74C05462078002804D087
:10142000FF20A6A1853008F076F80E20A0700120DC
:10143000E07020712988E180A9782172207070BD48
:1014400030B58BB02822A0496846FEF78DFE994C36
:101450002078002805D0FF2098A1DF3008F05BF845
:1014600000206A460021135C2518AB71002B05D0C3
:101470000023401CC0B2002B02D008E00123F8E793
:101480002828F0D305E02218401C9171C0B228280A
:10149000F9D32171012060713721E17020700BB008
:1014A00030BD10B5834C2078002804D0FF2083A1E4
:1014B000183008F030F8002020710E20A0701220A3
:1014C000E0700821A01D07F026FF01206071207048
:1014D00010BD10B5774C2078002804D0FF2077A1EC
:1014E000313008F018F874490622891FA01D07F052
:1014F000B5FE00202071012060710E21E170207086
:1015000010BD70B56B4C05462078002804D0FF2034
:101510006AA1973007F0FFFF28781F2804D0FF202A
:1015200066A1A13007F0F7FF002020710120607153
:101530000421E170207070BD70B55E4D04462878BE
:10154000002804D0FF205DA1AB3007F0E4FF207835
:10155000FF2802D0902816D02AE06078FF2827D1F3
:10156000A078FF2824D1E078FF2821D12079FF2816
:101570001ED160791F281BD1A079002818D1E079ED
:10158000002820D014E06078882811D1A0780128A4
:101590000ED1E07800280BD12079002808D160799D
:1015A000802805D1A079002802D1E07920280AD02E
:1015B000FF2042A1D13007F0AEFF01206871032166
:1015C000E970287070BD00202871F6E738B5044630
:1015D000007801250E281AD006DC012813D0032834
:1015E00009D0042827D10AE0122813D0322817D0B6
:1015F000372820D111E0A01CFFF79EFF28E0A01C97
:10160000FFF77FFF24E0A01CFFF704FF20E0FFF7B7
:1016100060FF1DE0FFF745FF1AE0FFF711FF17E03D
:101620000622A11C244807F019FE2248322120304E
:10163000C17401218174204601F00EFB002807D1FE
:1016400021786846817000210180FFF7E3FE0025C4
:10165000284638BD10B500F08FFD002801D00120CC
:1016600010BD14480121203041740174002010BDC8
:1016700010B500F0EAFD10BD10B50E4C2078002822
:1016800004D0FF200DA1023007F045FF002020719B
:101690000E20A0700F20E070FF20A0710B48208169
:1016A0000621A1725921A181E08101206071207081
:1016B00010BD000098010020080000207372635CD8
:1016C00063616C2E63000000AC960000FFFF000019
:1016D0008107C90E002808DA0007000F08388008C3
:1016E0002C4A80008018C06904E080082A4A8000E3
:1016F00080180068C8408009704710B50D20FFF7BA
:10170000E7FFC4B20420C043FFF7E2FFC0B2844247
:1017100003D022A1192007F0FEFE10BD0121244AAA
:1017200048031060234B00221A60234A5160234A69
:101730001060234A11601E498039086070470121FA
:101740001B4A480310601E4A51601A4A002111606A
:101750001A490860704710B516490868012804D076
:101760000EA1552007F0D7FE10BD16488068002254
:10177000C0B20A6001F02EFF10BD10B50D4801681F
:101780000029FCD0FFF7E7FF01200C494003086067
:1017900010BD000000ED00E000E400E07372635C47
:1017A000736F635F68616C5F726E672E6300000029
:1017B00080E100E000D1004000D3004080E200E082
:1017C00000D0004000D500405F490968016000205A
:1017D00070475D4908600020704701215B4A00287E
:1017E00003D0012803D05A487047916300E0D163C9
:1017F0000020704710B5044601F0E1FF84435548CE
:1018000041680C434460002010BD10B5044601F04F
:10181000D6FF84434F484168A1434160002010BD7A
:1018200010B5044601F0CBFF4749496881430020C9
:10183000216010BD4749012008604548801C704761
:10184000454A464B116004224249002805D05A609F
:10185000086901221043086108E008694008400057
:1018600008619A6039490020C031886000207047C3
:1018700038490622002808D0012809D002280DD0B6
:1018800003280FD03248401C70470869904302E09B
:1018900008699043801C08610020704708699043E4
:1018A000001DF8E708691043F5E72A494A6A024330
:1018B0004A620020704727494A6A82434A620020F0
:1018C00070472449496A01600020704710B5224CD6
:1018D0002068002803D122A18F2007F01CFE206879
:1018E000804710BD1D490420886018490020C03180
:1018F00088601F4801688022090A090211430160BB
:101900001C49012008607047EFF31081CA07D20F0D
:1019100072B610494B6803434B60002A00D162B68F
:1019200009494B6802469A43FBD17047EFF3108197
:10193000CA07D20F72B607494B6883434B60002A2F
:1019400000D162B670470000000400404000004033
:1019500004200000000500401000002000030040AB
:101960007372635C736F635F706F7765722E630071
:1019700000E400E000E100E001203B49400608608F
:101980003A4908603A490A68FF231B029A438312C6
:101990001A430A60344980390860704710B503461D
:1019A00034490020C20052181279002A09D0401C84
:1019B000C0B20428F6D330A1422007F0ACFDFF20CE
:1019C00010BDC2008B50012351180B7100224A71C7
:1019D0008A7110BD274A0021C0008018017170472C
:1019E00010B50446042803D323A1512007F093FD2A
:1019F0002048E1000C182079012803D01EA15220B4
:101A000007F089FD6079A179401CC0B2814206D0FF
:101A100060710120144940068031086010BD16A194
:101A20005C2007F078FD10BD70B511480068800B90
:101A3000022803D010A16A2007F06DFD00240D4E8E
:101A400003E0305880476879A871E000851929794A
:101A5000012903D16979AA799142F2D1641CE4B2D7
:101A6000042CF2D370BD000080E100E080E200E0D1
:101A700018E400E0CC0100207372635C736F635F55
:101A80007369676E616C6C696E672E63000000009D
:101A90008307FF22DB0E9A408907090E9940002830
:101AA0000BDA0007000F0838830881489B001818DC
:101AB000C36993430B43C361704783087D489B0010
:101AC0001B181868904308431860704770B5FFF7FB
:101AD00053FF7948FFF762FF784C20707848FFF792
:101AE0005DFF60700B2000F0D3F8182000F0D0F8F4
:101AF00000210B20FFF7CCFF00211820FFF7C8FFC3
:101B0000704D01246C60AC606F4900200860486033
:101B100088600B2000F0C4F8182000F0C1F86B4872
:101B2000E1020160490301602C6070BD10B5634C97
:101B30002078FFF74FFF6078FFF74CFF0B2000F095
:101B4000A7F8182000F0A4F85E48012141608160E8
:101B50005D4900200860486088600B2000F0A0F814
:101B6000182000F09DF810BD10B50B2000F098F87B
:101B700010BD10B50446012803D955A15A2007F01D
:101B8000CAFC5149A000401810BD02461032012184
:101B90009140564A9160554A40329160544A002122
:101BA0008000801801607047F7B504461746022888
:101BB00003D947A1752007F0AEFC4D48A100424A69
:101BC0000E188D1801201034A0400446012F12D0A9
:101BD000002F03D03EA18B2007F09DFC434884607A
:101BE0002868002801D00020286040484030446028
:101BF00001983060FEBD2868002801D000202860D0
:101C00003A484460F1E73A4840384068704770B558
:101C10002D4D28680026354C012809D1A068C00345
:101C200006D501200004A0602E60002002F028F9F3
:101C30006868012809D1A068800306D50120400406
:101C4000A0606E60012002F01BF9A86801280AD18B
:101C5000A068400307D501208004A060AE6017484B
:101C60000078FFF7BDFE70BD012022490006086024
:101C7000704710B5182000F013F810BD10B50F48CC
:101C80004078FFF7ADFE10BD10B502F079F910BD38
:101C9000C106C90E012088400C4980310860704798
:101CA000C106C90E01208840124980310860704782
:101CB00000ED00E000E400E04D42000014000020D0
:101CC000253F000000B0004040B1004000E100E0CE
:101CD0007372635C72656D5F68616C5F6576656E7B
:101CE000745F74696D65722E6300000000B300407C
:101CF00040B5004000E200E01CB504460020694603
:101D00000870204603F0EEF96946204603F09DF87E
:101D1000002804D1FF20F8A11E3007F0FCFB01A928
:101D2000204602F0EAFF002804D1FF20F2A1233070
:101D300007F0F1FB684600781CBDF44A002011460C
:101D40001077203108710423CB8010230B81488148
:101D500005230B7360390870203188738874887785
:101D6000107590717047E8E710B5E94982888A805C
:101D700042884A800078087002F095FFFFF7DDFF87
:101D800005F0DFF803F0EDF903F0C9FBE04804F0DB
:101D9000CDFD03F09EF910BD10B50120FEF73FFB0D
:101DA00010BDF8B504F0F5FFD84E0025203ED74C05
:101DB000012816D0207D00286BD0D5480E38406809
:101DC000878820464038806D8088B84203D0CAA1F9
:101DD000D04807F0A0FB384603F0DDF8002818D003
:101DE0001CE0CB4869460E3840688788384603F0C7
:101DF0002CF8002807D0C6486A460E388178127839
:101E00008918817045E0C348BBA1801F07F083FBA0
:101E10003FE0C048B8A1801D07F07DFB03F030F91A
:101E2000002836D0B9484038806D8088FFF764FFBD
:101E30000146B7480E38827889188170B348403817
:101E4000806D20308079012804D0B248AAA10E30DC
:101E500007F061FBAD4825704038806D8188618056
:101E60002721095C21710121B177AB49884208D053
:101E700003F0BEF9002804D0A6489FA11B3007F04C
:101E80004AFB2575207F012803D1607F102800D1EF
:101E900025779F480E388078002817D0B07C00281E
:101EA00014D19B480E3840688088B84204D09948C5
:101EB00091A1373007F02FFB944895494038C786E9
:101EC0000E398A7802870120B0748D70207F012836
:101ED00042D1607F2B2817D18C4E403E30780028AD
:101EE00002D02B210E2017E00821B01D01F0D5FAF9
:101EF000002806D00120357170712B21F1703070EF
:101F000029E0207F012827D1607F102824D1A079E3
:101F1000002804D01021012001F04BF91BE004F04F
:101F200038FF012819D004F034FF022814D17A4870
:101F30004030817F89070FD525726781C07F20736C
:101F4000754860300188E181408820826F49012016
:101F500040390870A0712577F8BD6D480E3840688B
:101F6000014640318A7F9207F6D525726781C97F85
:101F7000217360300188E181408820820120E9E7F7
:101F8000F8B504460F46FFF70CFF604D0026203DD4
:101F9000A87E00280AD0002F07D16670102020707C
:101FA000E87EA070287FE070AE7682E05748403827
:101FB000017800290BD0002F7BD10546811C2C22F3
:101FC000204607F04BF90E2020702E7071E0A87BA0
:101FD00000280BD0002F6CD10120E070E87BA070AE
:101FE000287C60700F202070AE7362E04748A97CA7
:101FF0000C38009046480E38002907D04178052952
:1020000004D2002F55D1491C41702CE040480021DA
:102010000E383E4E4170B07900280DD0002F48D1C7
:10202000002565700120207031460A220831A01C6D
:1020300007F014F9B5713CE03946204603F0F4F896
:10204000002836D13946204604F01AFC002830D149
:10205000A87C002813D0002F2BD12D480E384178B2
:10206000491C4170002666700D20207001202875E3
:102070000622A01C009907F0F1F8AE7419E0A87FC1
:10208000002802D0307D002801D00020F8BD002FAC
:102090000FD167700A20207006223146A01C07F07D
:1020A000DDF8AF77707F282803D1307F012800D179
:1020B00037770120F8BD10B51448017F012908D0F9
:1020C000007D012805D001210020FFF759FF0028DD
:1020D00001D0072010BD012010BD10B5012404F06F
:1020E00044FF0443FFF7E7FF044302F0F3FF014618
:1020F0002143084610BD00007372635C6C6C5F6323
:1021000074726C2E6D302E630000000058030020A6
:1021100026000020210A000020020020F8B50E460B
:1021200014461D4602F009FE002807D0684602F05A
:102130000FFE002803D0002C06D101E00120F8BDDD
:10214000FD49FE4807F0E7F9009802F02CFA314605
:10215000009802F03AFAE2B22946009802F0F1FB48
:1021600002F00BFE002804D1B320F349800007F0F1
:10217000D2F902F0B1FFE1E710B501790488428895
:10218000002908D0012909D0FF20EB496F3007F062
:10219000C2F90020AEE7831D022101E0831D012169
:1021A0002046FFF7BBFFA5E7FFB581B004460D460B
:1021B000164604F0EEFD012803D0E148007D00281A
:1021C00037D0E04840688088208002F0E4FE002894
:1021D00004D1DA48D849353007F09DF9D74F0524A6
:1021E0005937684602F0E2FE002822D0009802F03B
:1021F00024FA2870022806D0012804D002F024FF17
:10220000002818D01BE00499009802F0B2FB30803F
:10221000002804D1C948C849463007F07CF902F0CB
:1022200013FF002804D1C548C3494C3007F073F9A7
:10223000012005B0F0BDC049384607F06CF9641EB6
:102240002406240ECDD10020F3E73EB50446831DBD
:1022500002AA694601A8FFF7A7FF002813D0684625
:102260008088208068460089608000206071684610
:102270000078012808D0022806D0FF20AE49963009
:1022800007F049F901203EBD2071FBE7002177E608
:1022900010B5AB4C403C2078002804D005210E201E
:1022A00000F087FF26E702F0FFFCE08002F0CBFDA4
:1022B000207200202071012060710521E1702070E2
:1022C00018E7F8B59E4C0746403C2078002804D01B
:1022D00024210E2000F06DFFF8BD3879012540095A
:1022E000002801D012200AE004F053FD012805D196
:1022F000944ECC217068095C002906D00C20207116
:1023000065712420E0702570F8BD018B408800F0D5
:102310003FFF01467068DA22115205223946DC304F
:1023200006F09CFF7068C03005730020E7E7F8B541
:10233000834D0446203DA87B002804D023210F2094
:1023400000F037FFF8BD20887F49884222D8618895
:102350007E4A881F90421DD8A088831F934219D8B7
:10236000814217D8E1887D22D200914212D821897A
:10237000764B0A460A3A1B1F9A420BD8C008814284
:1023800008D96089A189884204D804F002FD012897
:1023900002D007E0122026E06A4ECC217068095C6A
:1023A000002901D00C201EE0018B408800F0F0FED7
:1023B000716802460846C0304283614AE0312032EB
:1023C000137B03775789C783A2880A80E6884E80EB
:1023D00024898C809742DDD8082BDBD89342D9D250
:1023E000022101730020E873232028740120A873C0
:1023F000F8BD70B5524C403C2078002804D0222112
:102400000E2000F0D6FE70BD04F04FFD002807D06E
:102410000C202071012060712221E170207070BDBC
:1024200047480025474E0577706802F0E1FE002816
:1024300004D0BB204049C00007F06DF87068808868
:10244000FFF75AFC2571E5E7FEB5054640A103C933
:102450003B4C0191203C0090A07B002804D021211E
:102460000F2000F0A6FEFEBD354F387F3E46403EB1
:10247000012802D0387D002802D00C203071FEBD2A
:1024800001207071284600F09EFE002809D000202F
:10249000E0732C48001D02F071FE2A4E002803D084
:1024A00009E01220307114E101220321706802F06A
:1024B00089FA002803D02049274807F02CF8214842
:1024C0000421466825A000680290283602A800F082
:1024D000E4FF1C4A0020083202A9095C135C594041
:1024E0003154401CC0B20428F6D3164E1CA07168AB
:1024F00000682C310290002002AB1A5C0A54401C88
:10250000C0B20328F9D37068327801462031CA740A
:102510002A8AC2826A8A0283AA8A42830022C272FB
:1025200002736A79002A01D0012A00D10A750522B6
:102530008A740622A91D15E0F8200000BD020000E3
:102540005803002018000020FF0E00007A0C000045
:10255000FFFFFFFF1F0000000D050000F0F0F0F08E
:1025600011223300353006F079FE70680522694685
:102570001C30FDF7F9FDF949029170684B8903861B
:1025800002990A7B2F210A54C18A8B4203D8082A58
:1025900001D88A4208D302F02BFE002802D0F0496D
:1025A000F0483FE012205DE00122002102F00AFA2B
:1025B000002804D0A920EA49C00006F0ACFF7068EA
:1025C000808802F073FB0028706812D08088802118
:1025D00002F086FD002814D070688088FFF78CFB1D
:1025E000706802F005FE0028DCD0DE48DC491E30B1
:1025F00018E002F0FDFD0028D4D05520D849000194
:1026000010E0287B002810D0012811D07068808845
:10261000FFF772FB706802F0EBFD0028C2D0D148D2
:10262000CF493D3006F077FFBCE7CF49002006E0F8
:1026300002980079002817D0C8490120891E03F0AC
:10264000A5F8002820D070688088FFF755FB7068D7
:1026500002F0CEFD002804D0B120C149C00006F030
:102660005AFF1F20E073FEBD70688088FFF744FBAF
:10267000706802F0BDFD002804D0BA48B849303077
:1026800006F049FF0C20EDE72879012801D0002849
:1026900003D103F08BF800280BD10320716803F0FD
:1026A00090F8002805D16988288804F061FC00288A
:1026B00014D070688088FFF71FFB706802F098FDE7
:1026C000002804D0A748A649773006F024FF1F2031
:1026D000E073212020740120A073FEBD71680020EA
:1026E000C031087348732120787701203877F0E7EC
:1026F00010B59A4C603C2178002904D01E210E2090
:1027000000F057FDF6E40178002901D0012904D139
:102710004178002903D0012901D0122009E00021CD
:102720002171007801280BD004F0C9FB002801D0EA
:102730000C202071012060711E21E1702070D9E40D
:1027400086480189C08804F03FFCEFE770B5834DEF
:102750000446603D29781F20002904D01D210E2049
:1027600000F027FD70BDA179002901D0012920D1F9
:102770002178002901D001291BD1E179002901D05C
:10278000012916D162887949121F8A4211D8A2887C
:10279000121F8A420DD80021297170496288CA80AF
:1027A000A2880A81A2790C26012A04D0002A0BD023
:1027B0000EE012201FE00979002903D06749891E25
:1027C000012003E02E7103E06749002002F0DEFFE4
:1027D000E179012902D0002902D004E0012000E0C3
:1027E000002002F0E3FF002807D0F9205C498000B8
:1027F00006F091FE1F2028710FE02078012802D0FA
:10280000002803D009E00021022001E0002101207E
:1028100002F0D7FF002800D02E71012068711D2121
:10282000E970287070BD70B54C4C0546403CA07BEB
:10283000002804D02C210F2000F0BBFC70BD04F058
:10284000A8FA01281FD1484ECC21083E7068095CC7
:10285000002918D129888288914214D10822A91C04
:10286000DA3006F0FBFC7068E2216A890A522946D8
:1028700010220C31E43006F0F1FC70680321C03006
:102880000173002000E00C20E0732C202074012054
:10289000A07370BD10B5044600881921C901884293
:1028A00004D2A078002801D0082803D92C49304848
:1028B00006F031FE294821884181A1780173002169
:1028C00060380171012141713522C270017011E43B
:1028D00070B5224C0546603C2078002804D0302199
:1028E0000E2000F066FC70BD21481D49133806F02B
:1028F00012FE1D49687808390870002020710120F7
:1029000060713021E170207070BD10B504F039FAAB
:1029100012496039002801D0002000E00C20087125
:10292000012048713422CA70087033E410B50B4C92
:10293000603C2178002904D032210E2000F039FCBF
:1029400028E401460622084806F088FC0020207191
:10295000012060713221E17020701BE478030020B7
:10296000F82000003F05000020000020FC3F000090
:102970005A09000010B5F94C01462078002804D00F
:1029800031210E2000F015FC04E4002008568107D8
:10299000890F15D181100A310B0006F00BFE0C07D0
:1029A000111111110707070707070711FDF727FF87
:1029B00000202071012060713121E170207071E4EC
:1029C0001220F6E770B5E54C05462034A07B0028C0
:1029D00004D010210F2000F0ECFB70BD04F0D9F9F9
:1029E00010210122012802D00C20E07312E0DC4803
:1029F0002D8840688388AB420CD15E231B5C9B070B
:102A000002D40623C0300373D448403002774177A4
:102A1000002000E01F20E0732174A27370BD10B588
:102A2000CE480178002904D00F210E2000F0C1FB10
:102A300038E4002101710E2181700F21C170FF2146
:102A400081710021C9430181C5490E310A78827222
:102A50008A8882814988C18101214171017021E404
:102A6000BE482B214030417701210177704770B576
:102A7000BA4D04462878002804D02A210E2000F000
:102A800098FB70BD10222146B64800F0DBFBB5482C
:102A90001022A118103000F0D5FBB24800F0B5FEAE
:102AA000B049102220312C46A81D00F0CBFB00209D
:102AB00020710E20A0702A20E0700120607120702B
:102AC00070BDF8B5A54C05462034A07B002804D085
:102AD00028210F2000F06DFBF8BDA04E4036307F5E
:102AE00001280DD0A87801271A2812D00BDC052860
:102AF0000FD013280DD014280BD015281BD108E0B7
:102B00000C20E073F8BD292803D03B2801D03D28D4
:102B100011D12988944881420DD804F03AF901284E
:102B20000BD0022811D00C20E0731F20E073282066
:102B30002074A773F8BD1220F8E789482A884068F6
:102B400081889142F1D1A97808E0864829883030FF
:102B500080888842E9D18348A9783030C0304172FA
:102B600007723777282070770020DFE710B57B4C9D
:102B70002178002904D017210E2000F01AFBC1E5AE
:102B80000146764806225E3006F068FB7349012054
:102B9000603108710021217160711721E17020708E
:102BA000B0E510B56D4C2178002904D00B210E2022
:102BB00000F0FFFAA6E50178002903D0012901D031
:102BC000122007E0401CFDF7CDFD002801D00020B9
:102BD00000E007202071012060710B21E17020705E
:102BE00090E510B55D4C2078002804D00A210E2015
:102BF00000F0DFFA86E5FDF71CFD002020710120C2
:102C000060710A21E17020707CE510B504F061F973
:102C1000002803D05549564806F07DFC02F027F8FD
:102C200002F057FA02F07EFA002804D050484F49CB
:102C30000B3006F070FC03F06CFE02F03AFCFDF77E
:102C4000F8FCFFF77AF84548002101710121417134
:102C50000222C270017055E510B5017801240B0005
:102C600006F0A8FC366E6E1C6E6E6B6E6E6E6E1F7E
:102C7000226E6E6E35386E6E6E6E6E6E266E6E6E77
:102C80006E6E54586E6E5C6063676E6E6E2A6E2E4A
:102C900032506E6E6E483C406E444C6FFFF7B5FF8D
:102CA0004FE0FFF79EFF4CE0801CFFF77AFF48E003
:102CB000801CFFF75BFF44E0801CFFF702FF40E051
:102CC000801CFFF7D4FE3CE0FFF7CAFE39E0FFF7B7
:102CD000A6FE36E0801CFFF775FE32E0801CFFF791
:102CE00049FE2EE0801CFFF721FE2AE0801CFFF742
:102CF0000CFE26E0801CFFF7EBFD22E0801CFFF7B6
:102D0000C9FD1EE0801CFFF78EFD1AE0801CFFF756
:102D10001DFD16E0801CFFF7EBFC12E0801CFFF7A6
:102D200093FB0EE0FFF765FB0BE0801CFFF7FFFA5B
:102D300007E0801CFFF7C5FA03E0FFF7A9FA00E0FF
:102D400000242046DEE410B5044C2078002811D081
:102D50000E21084600F02DFAD4E4000018030020EC
:102D600018000020F0010020FF0E0000F8200000F5
:102D70003A0300000622FB49A01D06F06FFA00206E
:102D80002071012060710E21E1702070BAE410B54D
:102D9000F54C2078002804D006210E2000F009FA16
:102DA000B0E40C2020710821A01D06F0B4FA0E201A
:102DB000A0700620E070012060712070A2E410B5C0
:102DC000E9480178002904D007210E2000F0F1F92C
:102DD00098E40C210171E4490022CA800A810E2185
:102DE00081700721C1700121417101708AE410B521
:102DF000DD480178002904D008210E2000F0D9F91F
:102E000080E40C2101710E2181700821C170012123
:102E10004171017076E470B5D34C054620780028E6
:102E200004D02D210E2000F0C4F970BD03F0B1FFD5
:102E300001460C20022918D1CB4E383E317B0029A7
:102E400013D13146C0392A888B889A4218D1897C9F
:102E50000E2901D00F2908D1C3481022A91C1E3801
:102E600006F0FCF904203073002020710E20A070C1
:102E70002D20E0702888E08001206071207070BDF6
:102E80001220F2E770B5B84C05462078002804D02F
:102E90002E210E2000F08DF970BD03F07AFF0C2179
:102EA00002280FD1B0483838027B002A0AD10246E6
:102EB000C03A2B889688B34214D1927C0E2A03D054
:102EC0000F2A01D0217103E0052101730020207138
:102ED0000E20A0702E20E0702888E0800120607114
:102EE000207070BD1220F2E710B59F4801780029CC
:102EF00004D00D210E2000F05CF903E40C210171D7
:102F00000E2181700D21C1700021C180012141710C
:102F1000017014E410B5944C2078002804D01221DC
:102F20000E2000F046F90AE4002020710E20A07067
:102F30001220E0700821A01D06F0EDF9012060715B
:102F40002070C4E410B588480178002904D013210A
:102F50000E2000F02EF9BAE40C2101710E218170CF
:102F60001321C1700021C1800172012141710170E2
:102F7000ADE410B57C480178002904D014210E205E
:102F800000F017F9A3E40C2101710E2181701421C6
:102F9000C17001214171017099E410B57248017846
:102FA000002904D015210E2000F003F98FE40C2134
:102FB00001710E2181701521C170012141710170D3
:102FC00085E410B568480178002904D016210E2048
:102FD00000F0EFF87BE40C2101710E2181701621C5
:102FE000C17001214171017071E410B55E48017832
:102FF000002904D019210E2000F0DBF867E40C2131
:1030000001710E2181701921C1700021817101218E
:10301000417101705BE410B553480178002904D078
:103020001C210E2000F0C5F851E40C2101710E2185
:1030300081701C21C17001214171017047E410B5FC
:1030400049480178002904D01F210E2000F0B1F872
:103050003DE40C2101710E2181701F21C1700121FD
:103060004171017033E410B53F480178002904D064
:1030700025210E2000F09DF829E40C2101710E217C
:1030800081702521C17000223749C2808A600A738D
:103090000121417101701AE4334810B52030817B61
:1030A000002904D026210F2000F083F80FE40C2122
:1030B000C173262101740121817308E410B52A48E7
:1030C0000178002904D029210E2000F072F82CE4A8
:1030D0000C2101710E2181702921C1700021C18054
:1030E00001720121417101701FE410B51E48017881
:1030F000002904D02F210E2000F05BF815E40C21EC
:1031000001710E2181702F21C1700021C1800172D7
:103110004181818101214171017006E470B5124C39
:10312000002540340146012829D00E48083840685F
:1031300002291FD0052904D00C490D4806F0EBF9EF
:1031400070BD03F0E6FF002804D0094807492A387B
:1031500006F0E1F9607F212818D0054803490E38B0
:1031600012E000002000002018030020F8200000DA
:10317000130B0000012121753949886570BD607FFE
:10318000232803D03749384806F0C5F9257770BDA4
:1031900070B504460E4604F0A1F8054601F053FE52
:1031A000294606F0CDF8401C70430834001980B25F
:1031B00070BD2B4A2032937E002B03D1D07611773D
:1031C00001209076704730B50188284C00220B1FF3
:1031D000A34235D843881D1FA54231D88B422FD832
:1031E000C389234C991FA1422AD8018A8D1FA54269
:1031F00026D88B4224D8438A7D24E400A3421FD8DA
:10320000838A1B4D1C460A3C2D1FAC4218D8C908A6
:103210008B4215D9C18A038B994211D8811D0FD0D9
:103220000179002901D001290AD14179002901D071
:10323000012905D1007B002801D0012800D10122FD
:10324000104630BD30B5134606E0CC18203CD51AE8
:10325000E47F5B1E4455DBB2002BF6D130BD00008D
:1032600018030020F8200000F70A0000FC3F0000CF
:103270007A0C000010B58CB004466846FEF788F85A
:10328000002806D06946204604F0A8FE002800D099
:1032900001200CB010BD10B58AB004460146684646
:1032A00004F0B1FCA078001D322804D86846FEF76F
:1032B000D1F90AB010BD0020FBE710B58AB0044672
:1032C0006846FEF7D5F90028F3D06946204604F099
:1032D000C1FC0120EDE700B5817889B0C91C322915
:1032E00002D9002009B000BD0146684604F01BFA6F
:1032F0006846FEF76BF9F5E770477047704770470F
:1033000070477047704710B5012801D1FEF744FDA2
:1033100010BDFEE701202249C00308602249214870
:1033200048612348214981602249C1601F49091D24
:1033300001612049091D416170471B4B9860DA60AB
:103340001961704770B518494860FF25184C8135E0
:10335000403CA560184E002809D0012803D017A1D1
:10336000522006F0D8F800203060656070BD012062
:1033700030608020606070BDFF200D498130403991
:103380008860704711480068012801D0012070470B
:103390000020704710B509A16D2006F0BCF810BDE3
:1033A00080E100E08803002000F5004000110040AB
:1033B00040F5014000F0004000F200407372635C91
:1033C00068616C5F63636D2E6300000000F4004071
:1033D0008107C90E002808DA0007000F08388008A6
:1033E000A74A80008018C06904E08008A54A8000D0
:1033F00080180068C84080097047A34948788978D8
:10340000884201D3401A02E02122511A0818C0B2A2
:1034100070479D49233148788978884201D3401A02
:1034200002E02122511A0818C0B27047964946316D
:1034300048788978884201D3401A02E02122511A43
:103440000818C0B2704710B50420C043FFF7C0FF92
:10345000C4B20D20FFF7BCFFC0B2844203D08BA1E1
:10346000CA2006F058F88849002023314870887037
:10347000233948708870463148708870874800F05A
:1034800011F98648401C00F00DF9FEF736F900F0FE
:10349000EEF810BD20207047AFE770B505460C462A
:1034A0000026FFF7AAFF7849A04214D30A46203A23
:1034B00000232046641EE4B200280BD08878105CFC
:1034C000287088786D1C401CC0B288702128F0D10B
:1034D0008B70EEE7012600F0CAF8304670BD202060
:1034E000704796E770B505460C460026FFF791FF3A
:1034F00065492331A04214D30A46203A00232046CE
:10350000641EE4B200280BD08878105C287088789C
:103510006D1C401CC0B288702128F0D18B70EEE782
:10352000012600F0A4F8304670BD20210170002073
:10353000704710B50446FFF779FF2070002010BDDA
:1035400070B505460C46FFF771FF4F494631A04262
:1035500015D30A46203A00232046641EE4B2002810
:103560000BD08878105C287088786D1C401CC0B225
:1035700088702128F0D18B70EEE7002400E0484CE1
:1035800000F075F8204670BD70B505460C4621293F
:1035900004D9FF203DA1473005F0BDFF3848406801
:1035A000103840B2FFF714FFC6B20D20FFF710FF2E
:1035B000C0B2864207D2FF2034A14D3005F0ABFFE8
:1035C00001E0FEF7DAF821462846FFF766FF0028FB
:1035D000F7D070BD70B52C4C05462334A1786078C7
:1035E000212200F039F80026002820D0233CA178C1
:1035F0006078212200F030F800281ED04634A178EF
:103600006078212200F028F8002821D0FEF797F8F2
:10361000224800F04BF801214903884203D01BA146
:10362000C12005F078FF1D4800F057F870BD16491D
:103630006078C91C04E0667070BD13496078203959
:103640000D546078401CC0B260702128F3D070BD6A
:103650000D4960782631F3E7401C884205D090423E
:1036600001D1002901D0002070470120704710B51A
:103670000A4800F01BF8002801D1FEF74FF810BDF2
:1036800000ED00E000E400E0D30300207372635C0F
:10369000736F635F72616E642E6300002C00002004
:1036A000072000000021017008467047EFF31081E9
:1036B000C907C90F72B60278012A01D0012200E0C1
:1036C000002201230370002900D162B6002A01D034
:1036D00000207047012040037047EFF31081C907B5
:1036E000C90F72B600220270002900D162B6002014
:1036F00070470000F0B500210A46FF230446CC4085
:10370000E4072AD04CB2E606F60E0125B5402D4E50
:1037100035602D4E3560002C11DA25072D0F083D40
:10372000AE082A4DB6007619F569A407E70E1C46C7
:10373000BC40A5431446BC402543F5610DE0A608F6
:10374000234DB60076193568A407E70E1C46BC4029
:10375000A5431446BC4025433560491C2029CDD3E0
:10376000F0BD10B51B4908601B494A6882434A6096
:103770004A6802434A60194A536801469943FBD19B
:10378000FFF7B8FF05F06AFA002801D005F085F9C7
:1037900005F03CFCFEF7A6F8FEF7EEF810BD10B5FC
:1037A0000C4C0D4920684A6882434A60FFF7A2FF2B
:1037B00005F02CFC05F078F90020206010BD0548CC
:1037C0000068704780E100E080E200E000ED00E08A
:1037D00000E400E03000002000050040000400404C
:1037E00010B52C48FFF75EFF002803D02AA1202047
:1037F00005F091FE2748401CFFF754FF002803D036
:1038000025A1242005F087FE10BDF1B5264882B021
:103810004068009001270F251E48FFF747FF234C03
:103820001C4E002806D10027701CFFF756FF09E048
:103830006D1EEDB22068002804D16068002801D117
:10384000002DF5D118491A4B002020606060029AC3
:103850004A6001221A602268002A02D16268002AA6
:10386000F9D06268002AF0D1002F0AD0002D03D0D1
:10387000701CFFF71BFFFEBD206060600098486071
:10388000FEBD701CFFF712FF0028CDD10148FFF7E5
:1038900024FFFEBD340000207372635C736F635FAE
:1038A0006563622E6300000000E5004000E1004017
:1038B00000E0004010B514246343FE4C1C19A368BB
:1038C000E4681B1A201A9B1C1B0200021B0A000A38
:1038D000994203D8904201D8012010BD002010BDAC
:1038E00010B5F54905F04EFEF44B0322C0185141C6
:1038F000F34A072305F005FC0002000A10BD10B5CD
:10390000FEF781F910BD70B50026EE4D0A20A870B3
:10391000ED483446467006701830C6728672681DCF
:10392000FFF7C0FEE848001D0474EC702C71E148FC
:103930006C70142171430918761CF6B20C71092EB3
:10394000F7D30120FEF721F90020FEF71EF9012030
:103950002870FEF7BBF870BD10B5FEF7E7F800F071
:1039600083FC10BD10B5D7480178002905D0FF2091
:10397000D6A1373005F0CFFD10BD01210170002127
:10398000C1708278042314246243CA4C1219137143
:103990000279002A05D001710120FEF7F6F8FEF742
:1039A000E3F8FEF761F910BD0246C249092014236D
:1039B00043435B18203B1B7C002B04D0401E0006B9
:1039C000000EF4D170471423434359180B46403B73
:1039D000DA62012220390A74704710B5044600F0FB
:1039E0004DFC002804D1FF20B8A14F3005F093FD15
:1039F00014204443AF482418203C207C012804D0E4
:103A0000FF20B2A1503005F086FD0020207410BDCB
:103A100070B5A94EAC4C60782178884201D101255F
:103A200000E00025FEF7EFF80021A54A072305F086
:103A300015FBA94B0022C01851413246002305F066
:103A400060FB61782278914201D1012100E00021E0
:103A5000A942E0D170BDF0B50646481EC5B28BB094
:103A600017460C46084600F009FC0146641EE0B209
:103A7000142250438F4A8418002902D0207901284B
:103A800004D0FF2091A1783005F045FD7868801EB4
:103A9000A0603978002908D0012924D0022920D03B
:103AA000FF208AA18A3005F036FDA0682B4600026F
:103AB000000AA060B9687868884A4018801C000233
:103AC000000AE06078786074387820740C21304601
:103AD000FFF7F0FE002812D005F0BAF8002805D054
:103AE00026E0343800E00A38A060DEE7207C0128B8
:103AF0001ED1A068801B0002000A342818D80520B7
:103B00002071714C1834E07A0A21401C05F018FC31
:103B1000A07A814203D1FF206CA1A33006E1E07AB4
:103B20002554E07A0A21401C05F00AFCE172E4E029
:103B3000644881780A291BD00021012294468278AA
:103B4000A3685C489B1B0893E3689B1B09931423A1
:103B50005A43121893689F1B099B9F4204D8D3684D
:103B60009F1B089B9F4206D2002704AB5F540BE0CB
:103B70000221217188E0012704AB5F54537C677CEC
:103B8000BB4201D800239C465279491CC9B20A2A7B
:103B900003D06346002BDAD1B9E061460029FBD09F
:103BA00048498F780A21039100210791079904A8B9
:103BB000405C012824D00397142047433D4838181F
:103BC00047790798401CC0B207900A2FEED1022017
:103BD00020713C4882780A2A56D087780A220392BC
:103BE000A268921B14213B464B43324959188B68FB
:103BF0009B1B934276D98178B94249D1857054E0B4
:103C000030488178B94207D114213A464A432949BC
:103C100051184979817012E003980A2804D1FF20D5
:103C20002AA1E13005F077FC1420394641432148B0
:103C3000142309184A79039959430818427114202A
:103C40003A4642431B480621101801711E4818309D
:103C5000C07A0A21401C05F073FB1B481830807A9B
:103C6000814204D1FF2019A1E63005F054FC16482A
:103C70001830C17A4754C07A0A21401C05F060FB15
:103C800011481830C17297E70A21617185700DE003
:103C900003980A2803D10DA1114805F03CFC0399B3
:103CA00014204143034808184571677101200BB087
:103CB000F0BD17E01C04002000CA9A3BC6A47E8D0C
:103CC0008D49FD1A36000020700500207372635C78
:103CD00072656D2E630000000065CD1DFFFF3F0083
:103CE0000A02000049790A2909D003970F4600D03B
:103CF00078E7FE49FE4805F00EFC0020D7E71420C7
:103D00004743FC48381845710A206071CEE705200A
:103D10002071F94CE07A0A21401C05F011FBA07AD1
:103D2000814200D0FBE61120F049400105F0F3FB91
:103D3000F5E670B505460C46F04A00210846521BD0
:103D4000884104D28B20E949800005F0E4FBEC486F
:103D500000221146001B914104D2E548E34913308B
:103D600005F0D9FBE54B28195B1C0021C31A8941DA
:103D700002D3E249C943401870BDF3B5E14F81B0A9
:103D80000D46781DFFF792FCDB4C183C002838D01C
:103D9000261D307C002804D04B20D449C00005F0FB
:103DA000BAFB01203074019830702878307168783F
:103DB00070716868FFF794FDB060A868FFF790FD28
:103DC000F0606078217888421AD0BD780A2D11D031
:103DD000FDF719FF1421C74A694389180979042995
:103DE0000ED003290CD02B46C74A0A21FFF762FDEB
:103DF000002805D060782178884201D0FDF734FF93
:103E0000FEBD60780A21401C05F09AFA20788142B4
:103E100004D1B748B5492D3005F07DFB6178019894
:103E2000B44E0901B43670542878617809018919B3
:103E30000871687861780901891948716868FFF725
:103E40004FFD6178090189198860A868FFF748FD6E
:103E5000617809018919C86060780A21401C05F061
:103E60006FFA6170781DFFF738FCAAE710B50020E3
:103E7000FDF77FFE10BD10B50120FDF77AFE10BDE5
:103E800070B5A04C0646A0780A2804D198489749F6
:103E9000733005F040FB002020700120E070A07816
:103EA00003211422934D504340190171FDF7E1FEA7
:103EB000002E07D0012E0ED08D488C49943005F08D
:103EC0002AFB70BD0020FDF760FEA0781421484356
:103ED0002958012012E00120FDF757FE2079002823
:103EE00005D0A078142148432958052006E000F0A9
:103EF000B1F9A0781421484329580020884770BDA3
:103F000010B5804CA0780A2804D1794877499B30B5
:103F100005F001FBA0781421484376490958042094
:103F2000884710BDF8B5734D0127734C0EE0A07A99
:103F3000265C142046437019017905290BD0062907
:103F400013D06B486949B53005F0E5FAE07AA17AFB
:103F50008842ECD1F8BD0771A07A0A21401C05F017
:103F6000EFF9A172A959022008E00771A07A0A218D
:103F7000401C05F0E5F9A172A95903208847E5E73F
:103F8000F8B5FDF740FE5F4C06462078002804D1C6
:103F900057485649BF3005F0BEFA2079002804D0B2
:103FA00053485249C03005F0B6FAA078514D0A285E
:103FB00014D0A078142148434019007904280DD06A
:103FC000A078484340190079032873D0A3784E4A5B
:103FD0000A213046FFF76EFC00286BD0A078464FD0
:103FE000183F0A2824D0A0781421484340190079AA
:103FF00004281DD1A07801211422504340190171D9
:10400000A078504340194079A07011E03878010140
:104010003848B4300A183978121D0901415C30461D
:10402000FFF719FD38780A21401C05F089F939702D
:10403000787839788842E9D12F4F143F387C0028AE
:1040400006D039783A1D3046FFF705FD0020387458
:10405000A0780A285CD0A078142148434019007C3D
:1040600001281BD1A078484340198068801B0002BA
:10407000000A342812D9A078022114225043401992
:104080000174A0785043401981682A398160A07872
:104090005043401981680902090A8160A0781421FF
:1040A00048434019007C002805D001283AD0022856
:1040B00030D107E035E0A0781421484340198168E9
:1040C000891C0FE0A078142148434019816801221F
:1040D000891C1046FDF768FDA0781421484340195B
:1040E000816836310122002010E00000CC3C000045
:1040F0001A0200001C04002088050020FF7F841E97
:104100000020A10736000020FFFF3F00FDF74CFD17
:1041100000F0AAF86148C17A807A814201D0FDF7A7
:10412000ADFDF8BDA07814214843401981680122F3
:10413000891C1046FDF738FDA0781421484340192A
:10414000816801220C310020FDF72EFD00F082F87D
:10415000E0E7F8B5524C0746A07800250A2803D1BD
:104160005049514805F0D7F9A07814214F4E4843E3
:1041700080190079032804D00D204A49800105F0F8
:10418000CAF92079002804D047484649801C05F028
:10419000C2F9A078142148438019007C002806D079
:1041A000012803D0022802D1342500E00A25384630
:1041B000FFF796FBA178801C142251438919896866
:1041C0000122491940180102090A1046FDF7ECFCCA
:1041D00001202071F8BD70B5354C0A1A0023141B5C
:1041E0009B4105D3324D431A00245D1BA44101D2EB
:1041F000104670BD2F4E00252C46B21AAC4103D29A
:10420000721C101A401870BD2A4D00242246EB1A69
:10421000A24104D26A1C511A0818404270BD2248BB
:104220002049303005F077F9002070BD10B5014607
:1042300001220220FDF7B8FC10BD10B50220FDF7E9
:10424000A4FC10BD10B5FDF7DEFC10BD10B504F0E8
:104250004FFD10BD10B5124C6078002803D104F05A
:10426000CDFB0120607010BD10B50D4C60780028AA
:1042700003D004F0E1FB0020607010BD0021421E5D
:10428000082A08D814225043084A80182038007C95
:10429000002800D001210846704700008805002052
:1042A00036000020CC3C00003F0300001C0400202E
:1042B0000020A107FF7F841E10B5282105F02BF8F0
:1042C00010BD40788006800E704740788006800ED2
:1042D000C01C70472820704770B5054600780A0753
:1042E00000090001120F104328700B0005F062F95D
:1042F00007050705070509050B00062408E00C243F
:1043000006E0222404E00024F7A1582005F003F978
:104310006878A10680098001890E0843687070BD25
:1043200000780007000F704710B50622C01C04F08B
:1043300095FF10BD034610B508460622D91C04F0AF
:104340008DFF10BD10B50622093004F087FF10BDA7
:104350000346084610B519460622093104F07EFFCF
:1043600010BD0278BF23C9071A40490E0A430270E4
:10437000704700784006C00F704702785206520E10
:10438000C9010A43027070470078C009704770B5D0
:104390000C460546C11C20460622093004F05EFF8B
:1043A00020784006400E207029788909C901084309
:1043B000207070BD70B504460E4615461F2A03D9FD
:1043C000C9A1A92005F0A7F820462A4631460930A0
:1043D00004F044FF6078AD1D80098001A906890EB4
:1043E0000843607070BD70B5054640780E4684067F
:1043F000A40E062C03D2BCA1B92005F08CF8A41F92
:10440000E4B21F2C00D91F24294622460931304628
:1044100004F024FF204670BD70B504460E461546D4
:104420001F2A03D9B0A1CD2005F075F820462A46F1
:104430003146093004F012FF6078AD1D800980011B
:10444000A906890E0843607070BD70B504464078B7
:104450000E468506AD0E062D03D2A3A1DE2005F083
:104460005AF8AD1FEDB21F2D03D99FA1E22005F030
:1044700052F821462A460931304604F0EFFE28461C
:1044800070BD10B504220F3004F0E8FE10BD0346E5
:10449000084610B5194604220F3104F0DFFE10BDA6
:1044A00010B50322133004F0D9FE10BD03460846B0
:1044B00010B519460322133104F0D0FE10BD417629
:1044C000090A81767047817E427E08021043704758
:1044D000C176090A01777047017FC27E0802104346
:1044E00070474177090A81777047817F427F0802D0
:1044F00010437047C175090A01767047017EC27D7D
:1045000008021043704781757047807D70472030E6
:104510000279C90652095201C90E0A430271704755
:1045200020300079C006C00E704720300279D206D4
:10453000D20E49010A4302717047203000794009C8
:10454000704710B505221F3004F088FE10BD0346E9
:10455000084610B5194605221F3104F07FFE10BD34
:1045600030B5411C837E0A461902D37D447E927D7C
:104570001B0221431343604D827D8C1FAC4210D837
:10458000002A0ED0082A0CD88A420AD28B4208D8B8
:10459000817F427F08021043A91D884201D8012073
:1045A00030BD002030BD00210A464254491C22295A
:1045B000FBDB70474078C006C00E70474078C006ED
:1045C000C00EC01C70472220704710B502788B07C0
:1045D000920892009B0F1A430270427852095201CE
:1045E0004270012908D0022906D0032905D0FF20F6
:1045F0003DA1A33004F08FFF10BD01210A4342709A
:1046000010BD10B502788B07920892009B0F1A43D9
:1046100002704278520952014270012908D00229E1
:1046200006D0032905D0FF202FA1BD3004F073FF71
:1046300010BD01210A43427010BD00788007800F31
:1046400070470278FB23C9071A40490F0A430270DA
:10465000704700784007C00F70470278F723C907FA
:104660001A40090F0A430270704700780007C00F14
:1046700070470278EF23C9071A40C90E0A43027037
:1046800070470078C006C00F704770B50546C1700E
:104690000B0004F08FFF0E080A0C0E1012120C14FF
:1046A000141212160C180C2413E0082411E0022432
:1046B0000FE017240DE00D240BE0012409E009248C
:1046C00007E0062405E04520002407A1C00004F00F
:1046D00022FF6878E10640094001C90E084368706E
:1046E00070BDC078704700007372635C756C5F705A
:1046F00064752E63000000007A0C000070B504465B
:1047000040780E46C506ED0E1B2D03D9AA49AB48CD
:1047100004F001FF6019C01C0422314604F09EFD24
:1047200070BD70B5044640780E46C506ED0E1B2DD3
:1047300004D9A248A049093004F0EDFE6119C91C52
:104740000422304604F08AFD70BDC171090A01726D
:10475000C8E7017AC27908021043C3E74172090A27
:104760008172BFE7817A427A08021043BAE7C172C8
:10477000090A0173B6E7017BC27A08021043B1E768
:104780004171090A8171ADE78179427908021043CC
:10479000A8E70171A6E70079A4E74173090A8173CC
:1047A000A0E7817B427B080210439BE730B5411CA8
:1047B000037A0A46C47919022143537914791B02FA
:1047C00023437F4D00798C1FAC4210D800280ED0B7
:1047D00008280CD888420AD28B4208D8D07A917A1D
:1047E00000020843A91D884201D8012030BD0020E5
:1047F00030BD10B50522001D04F030FD10BD03468C
:1048000010B508460522191D04F028FD10BD41729F
:10481000090A817266E7817A427A0802104361E7E9
:1048200001715FE700795DE710B50822001D04F013
:1048300015FD10BD034610B508460822191D04F0E9
:104840000DFD10BD0A780273497841734AE7027B77
:104850000A70407B487045E710B508220E3004F01E
:10486000FDFC10BD0346084610B5194608220E315E
:1048700004F0F4FC10BD10B50422163004F0EEFC78
:1048800010BD0346084610B519460422163104F03F
:10489000E5FC10BD10B50822001D04F0DFFC10BDC2
:1048A000034610B508460822191D04F0D7FC10BDB8
:1048B00010B504220C3004F0D1FC10BD03460846AC
:1048C00010B5194604220C3104F0C8FC10BD01716A
:1048D00008E74171090A817104E7C171090A01728F
:1048E00000E70079FEE68179427908021043F9E693
:1048F000017AC27908021043F4E60171F2E6007908
:10490000F0E60171EEE60079ECE610B50822001D34
:1049100004F0A4FC10BD034610B508460822191D7A
:1049200004F09CFC10BD10B50822001D04F096FC9C
:1049300010BD034610B508460822191D04F08EFC70
:1049400010BD70B504460E4615461B2A04D9372003
:104950001949000104F0DFFD2A463146E01C04F04D
:104960007DFC6078E90640094001C90E084360708B
:1049700070BD70B5054640780E46C406E40E1B2C8B
:1049800004D9DF200C49800004F0C5FD2246E91C53
:10499000304604F063FC204670BD4078C006C00E6F
:1049A0001B2801D801209DE600209BE610B522229D
:1049B00004F054FC10BD0000E84600003A0200007C
:1049C0007A0C0000FEB504460F460020214626461C
:1049D0002546C031203640350190032F04D0002FEA
:1049E00025D0012F23D041E000206080E08120828B
:1049F0000123A371E0722073A074E074E07120724F
:104A00006072A072B0712B71E88068810872288290
:104A10002875A881A870E87020756075B070287737
:104A20006877A87760342271A071E88175E0002072
:104A3000E8806881012F1ED0E08A0090608B029090
:104A4000C000009904F07CFC401C80B228810099D1
:104A5000192241439202914201DD401E28817D20AE
:104A60000002009904F06CFC401C6882002F20D0EA
:104A7000022F1ED051E0487B02280FD0087B02286D
:104A800010D06BA16F2004F046FDE08AE98948430D
:104A9000009904F05FFCE8810298D1E7888A0090D1
:104AA000088B04E02046E030018800918088029065
:104AB000EBE73078C006C00E307000206870221816
:104AC000137F2032D9075B08DE07C90FF60F76186F
:104AD0005908CB07DB0F9B194908CE07F60FF318CF
:104AE0004908CE07F60FF3184E08F107C90FC91889
:104AF0007308DE07F60F71185B08591811776A788A
:104B0000401C5118C0B269700528D8D3C8B22528F6
:104B100001D9122000E0002001900198FEBD70B57F
:104B20000446403466780546002E03D0252E03D96E
:104B3000122070BD002070BD3220A178405D0818A1
:104B4000252104F0FDFB0846A1704207520FC90859
:104B50003B4B69189A5C097F8A4367D0314604F061
:104B6000EFFB491CCAB2002006E0002804D0291837
:104B70002031C97E511ACAB229183C235B5C93428A
:104B800039D3097FC943CB07DB17D21A521E12064D
:104B9000120E35D08B07DB17D21A521E1206120ED8
:104BA00030D04B07DB17D21A521E1206120E2CD031
:104BB0000B07DB17D21A521E1206120E28D0CB0694
:104BC000DB17D21A521E1206120E24D08B06DB17E8
:104BD000D21A521E1206120E20D04B06DB17D21A22
:104BE000521E1206120E1CD00906C917511A491E70
:104BF0000A06120E18D0401C0528B6DB1F2070BD17
:104C0000C00013E0C000401C10E0C000801C0DE09C
:104C1000C000C01C0AE0C000001D07E0C000401D2D
:104C200004E0C000801D01E0C000C01DE07081E70D
:104C30007372635C6C6C5F7574696C2E630000004A
:104C4000D496000010B5F9480021017041708170C0
:104C5000C17041718171C1710830FEF723FD0028D8
:104C600004D0FF20F2A1863004F055FC10BD10B531
:104C7000EE4900204872081DFEF714FD002804D0FC
:104C8000FF20EBA1C53004F046FCFFF7DBFFEB484B
:104C9000FFF789FC0021E948FFF7EBFC0121E74819
:104CA000FFF793FC10BDE2E71B207047DF494A7A0B
:104CB000002A01D0002070474881012048727047C7
:104CC00010B5DA494A7A002A02D04989814201D0D6
:104CD000002010BDD548001DFEF7E8FC002804D0D8
:104CE000FF20D3A1B63004F016FCD048001DFEF71B
:104CF000F4FCFFF7A7FF012010BD70B5CB4C0025D9
:104D0000627A002A02D06289824201D00D700DE0E1
:104D1000227863789A4203D322786378D21A04E027
:104D200062782378D21A0E239A1A0A70FFF7C8FF06
:104D3000002801D06572012070BDBC494A7A002A62
:104D400004D04989814201D1012070470020704779
:104D500070B5B64C054620780E21401C04F0F0FAE0
:104D60006078814207D0207822214843B449401816
:104D70002860012070BD002070BD10B5AB4C0E2125
:104D80002078401C04F0DCFA6078814207D020785B
:104D90000E21401C04F0D4FA2170012010BD002027
:104DA00010BDA2494A7A002A04D04989814201D122
:104DB00001207047002070479C490A784B789A423E
:104DC00007D04978222251439D4A89180160012069
:104DD00070470020704710B5944C20786178884265
:104DE00017D060780E21401C04F0AAFA6170201DD3
:104DF000FEF75CFC002804D0E078401CE070012045
:104E000010BDA078401CA0708848001DFEF765FC0E
:104E1000F5E7002010BD854801784078814201D136
:104E20000120704700207047804801784278914205
:104E300002D30178407803E041780078081A0E2107
:104E4000081AC0B270470D20704770B5774C0D46F8
:104E5000617A002916D06189814213D100262E7013
:104E6000201DFEF723FC002805D1A0782870A6702D
:104E7000201DFEF732FC2878E17840182870E67093
:104E8000012070BD002070BD6C490160704767490A
:104E90004A7A002A04D04989814201D10120704711
:104EA0000020704761494979002901D000207047EE
:104EB00064490160012070475C484179002901D0B4
:104EC00000207047012141710846704757494A7ACE
:104ED000002A04D04989814201D101207047002075
:104EE000704752494979012901D00020704755493E
:104EF0000160012070474D484179012901D000200F
:104F000070470021417101207047484840790128CD
:104F100001D0012070470020704744494A7A002A96
:104F200004D04989814201D1012070470020704797
:104F300070B53E4C0546A0790721401C04F000FAEC
:104F4000E079814208D0A079222148433D492231AD
:104F500040182860012070BD002070BD10B5334C92
:104F60000721A079401C04F0EBF9E079814207D0D9
:104F7000A0790721401C04F0E3F9A171012010BDC4
:104F8000002010BD29488179C079814201D10120DA
:104F900070470020704725494A7A002A04D0498981
:104FA000814201D1012070470020704710B50446AE
:104FB0001E480830FEF77AFB002815D11B49887976
:104FC000CA7990420CD0C879222148431D49223128
:104FD0004018206015480830FEF77FFB012010BD07
:104FE00012480830FEF779FB002010BD10B50446CA
:104FF0000E480830FEF75AFB002815D10B49887976
:10500000CA7990420CD0C879222148430D492231F7
:105010004018206005480830FEF75FFB012010BDF6
:1050200002480830FEF759FB002010BD3C0000206C
:105030007372635C646D5F712E630000A2080020D0
:10504000940500207007002010B51F48FEF72EFBC6
:10505000002813D11C4C083CA079E17988420AD081
:10506000E0790721401C04F06BF9E1711648FEF766
:1050700034FB0120D9E71448FEF72FFB0020D4E7CA
:10508000114808388179C079814201D101207047E7
:10509000002070470C4808388179C079814201D1DD
:1050A0000120704700207047074908394A7A002AD2
:1050B00004D04989814201D1012070470020704706
:1050C0000249016070470000440000208008002071
:1050D00070477047FF207047704770470020704747
:1050E0000020704700207047002070470020704764
:1050F0000020704700207047002070470020704754
:105100000120704700207047002070470020704742
:10511000002070477047704770477047704770476E
:1051200070477047F8B53B480168012901D00C2051
:10513000F8BD00213748384F0C460160F82025465D
:105140004543EE190146304604F0E7F80120785552
:10515000B480641CE4B2052CF0D32E490860002012
:10516000F8BD10B52B4901200860FFF7DBFF0028D0
:1051700003D02AA1692004F0CEF910BD70B5254AEC
:105180001168012901D00C2070BD0025224B294651
:1051900001241560F8264E439E5D002E07D0F826A8
:1051A00071435D54C91801600020146070BD491C32
:1051B000C9B20529EED31F20146070BD30B5154A61
:1051C0001368012B01D00C2030BD00231360012394
:1051D000052805D2F82460430F4C255C002D02D031
:1051E0001220136030BD001908600020136030BD2C
:1051F00008490A68012A06D100220A6003780122C0
:10520000002B02D00A600C207047027000200A6058
:105210007047000048000020C80800207372635CDB
:105220006C6C5F64622E630070B504460020FA4E19
:1052300003E0401CC0B2022805D22B22424392193F
:10524000927F002AF5D0F44A00256032137D002BAE
:105250000AD0002930D1657010202070507DA070D8
:10526000907DE070157527E0327A012A04D002287B
:1052700024D200290ED01FE000291DD16570052021
:10528000E549207014220A31A01C03F0E7FFA57144
:10529000357211E02B214843861931461F312A22ED
:1052A000A01C03F0DBFF6570042020700120A070BB
:1052B00055202034E072B577012070BD002070BD0C
:1052C000F8B5D54D0746A87F002811D12846F03003
:1052D000FFF726F801462C4600200126203400293D
:1052E00017D0012905D0022910D0062910D020722C
:1052F000F8BD267020723846FFF73BF8C64960704B
:1053000022313846FFF716F8AE77F8BD032000E0EB
:105310000220C149207029313846FFF764F8E9E7D7
:1053200010B5FBF7FCF901F0D2FFFBF7BFFBFBF771
:10533000A2FB0020FBF701FB0120FBF7B8FAB648FF
:10534000F030FBF7B0FB012003F054FBFBF7ECF966
:1053500001F016FF00280BD0B04C207903280AD0AA
:10536000022808D00120FBF7A2FA0320207010BD0C
:1053700000F08AFC10BD0720F5E7A94910B50846E2
:105380005038FFF704F8A648FBF78DFB012003F027
:1053900030FB0320FBF78BFAFBF796FB9F490520B8
:1053A000087010BD10B59C4C032847D0052844D187
:1053B0009B48FEF781FF05219948FEF78DFFA179F3
:1053C0009748FEF7CEFF21469548FEF7ADFF934C78
:1053D0009348E1692831FFF754F8E16990482C318E
:1053E000FFF75EF8E0692030C17B8D48FFF78BF84E
:1053F000E069018E8A48FFF77DF8E069C18A884834
:10540000FFF75DF8E069018B8548FFF761F8E06917
:10541000418B8348FFF765F8E16981481C31FFF74C
:1054200090F8E0692030817C7D48FFF770F8E069F2
:105430002030C17C7A48FFF778F810BD7848FEF735
:105440003BFF03217648FEF747FFA1797448FEF73A
:1054500088FF71497248FEF767FF10BD10B56F4CA9
:105460000028A18908D0FF290DD24804000CA08192
:10547000FF2808D9FF2005E0012904D94808A081A8
:1054800001D10120A081A069012801D0002801D10B
:105490000D20A061C04317214843217A3B22C94314
:1054A00051434018A061800CA18903F049FF21728B
:1054B00010BDF8B5594C2078022803D0012801D03E
:1054C0000C20F8BD0020544905462B2242435218B7
:1054D000401CC0B295770228F7D34F480D72603058
:1054E0000575A5700126E670CD714C4F25710E37FC
:1054F0003E707E70BE7078224749183003F0AEFED1
:105500000020B91D3A5C0A54401CC0B20328F9D3EC
:105510006672E0692062A572E5720020F8BD10B5E0
:105520003E4C2078002803D03EA1434803F0F3FF0F
:105530003A48801DFEF7B6F8002804D03E4839A14D
:10554000001D03F0E8FF35482521113001702621A8
:1055500041702721817001202070FFF7AAFF0028E9
:1055600004D035202FA1000103F0D5FF10BDF8B500
:105570002A4D0C262878012801D0022815D1274869
:10558000801DFEF793F800280FD1287801280ED04F
:1055900002280CD02148801DFEF79FF8002804D077
:1055A000254820A1243003F0B6FF0C20F8BDFBF7FE
:1055B0006AFAE87A00285ED0174978227831881A8A
:1055C00003F04CFE154A00201432911F135C0B545B
:1055D000401CC0B20328F9D3687AE870286AE861F1
:1055E000A87A28710A780027002A05D14A78002A6B
:1055F00002D1897800293CD0032801D0022807D1A4
:10560000A9782C4600292DD0032817D002281DD0B8
:105610002C46012820D025E0A00D00204C000020C1
:10562000E00E00207372635C6C6C5F64645F736394
:10563000616E2E6300000000420300000520FFF7AA
:10564000B1FEFC488179FBF77CF802E00320FFF70C
:10565000A9FE0026E77201E00026EF7228780128F3
:105660000ED017E0EF72002E14D0287802280FD049
:1056700010E02C46F6E7287802280BD1002609E036
:10568000FBF74DF80120FBF758F900F0E4FA01E0D0
:1056900001202070E848FBF7AEF9FBF7FFF9E74877
:1056A000FEF71BF8002803D0E549E64803F033FF76
:1056B0003046F8BD70B5FBF7E6F9E04CA41F207842
:1056C000022804D1A01DFDF7F1FF002802D0FBF74E
:1056D000E5F90EE0207802280DD0FBF7DFF9D74876
:1056E000FDF7FBFF002804D0D648D5491C3003F055
:1056F00012FF0C2070BD01202072A0810220FBF758
:10570000BFF9CD48C01CFBF7A5F8CC4E0024C94D0D
:105710000836E8790321401C03F012FEE971705C41
:10572000012811D0641CE4B2032CF2D3FFF7F8FD7A
:10573000C248FDF7D2FF002804D0C248C0493B3020
:1057400003F0E9FE002070BDC8B2BC490B31085C13
:10575000FBF794F8EAE7B94B0E3318705970194605
:105760009A7001201439C87200207047B349012291
:10577000891F002805D0032801D0122070474A72E3
:1057800001E000204872CA7200207047A94A10B593
:1057900078329071A7480622783003F05FFDA74960
:1057A0000120891F8870C872002010BD002803D016
:1057B000012801D012207047A049891F487100209C
:1057C00070479E4A921F032800D1116290720120F7
:1057D000D0720020704710B500F056FA10BDF8B531
:1057E000054603F008F9954C0026A41F002D6FD044
:1057F0009048F030FEF765FD0028F8D020780328A7
:1058000004D0042878D08E498F4810E101F0B8FC0C
:10581000002827D08748F030FEF782FD6070FBF744
:1058200016F8E178084305468448FDF73FFF002855
:1058300004D084488249E53003F06DFE20780328C7
:1058400004D080487E49E73003F065FE794F6078E8
:10585000F037002821D001284FD0022805D0062893
:1058600005D108E000F010FAF8BD002D2AD179E04A
:10587000401E207276E0002D74D0207902281BD0C3
:10588000012804D06EE02672FFF777FD6CE0FBF78D
:105890007FF80020FBF70BF85DE0002D62D0207947
:1058A000022809D001280DD003282FD0664864496A
:1058B000E03803F030FE57E0207A0028E3D0401EA5
:1058C0002072E0E7FBF764F80120FAF7F0FFE0E769
:1058D00098E0012000E000206279012A02D000282F
:1058E00040D006E0002804D152483531F030FEF7B0
:1058F00021FD00F0D7F937E040E0002D32D02079CB
:10590000032828D1FAF727FF002821D0206AFA7847
:1059100001462030437D9A42DDD13A79837D9A4217
:10592000D9D17A79C37D9A42D5D1BA79037E9A4288
:10593000D1D1FA79437E9A42CDD13A7A837E9A4286
:10594000C9D13A78007D5206D20F8242C3D1C0E756
:105950002079032806D03748F030FFF7B1FC207AD1
:10596000002885D1FFF7DCFC3448FDF7B6FE00289F
:1059700000D179E734483249633858E03348FEF7BC
:10598000CFFC60702D48FDF791FE0028F1D1207802
:10599000042808D02948FDF7A0FE0028E9D0C5203A
:1059A0002749C00043E0FAF7F3FF0120FAF77FFF31
:1059B0000020FAF77CFF60780428254805D0FFF71F
:1059C0007FFCE07900280ED010E0FFF779FCE07949
:1059D000002802D00020FFF741FD0120E0711B48A4
:1059E00000F012F903E00120FFF738FDE671FFF740
:1059F00097FC1248FDF771FE0028BAD0CD2010495F
:105A0000C00014E02078032824D00428B1D10B482A
:105A1000FDF74CFE0028ACD12078042836D007488A
:105A2000FDF75BFE0028A4D0D5200549C00003F097
:105A300072FDF8BDA00D0020DC9600005200002091
:105A400024560000AE03000076060000B80E0020C9
:105A5000900E00209E48FDF729FE002804D0D1209A
:105A60009C49C00003F057FD2078032803D09949D2
:105A7000994803F050FDFFF753FC9548FDF72DFEC4
:105A80000028D6D0944893490D30D0E79348FFF7CB
:105A900017FCE079002802D10120FFF7DFFCE67156
:105AA000FFF73EFC8A48FDF718FE0028C1D08A485F
:105AB00088493730BBE7F8B502F09DFF844CA41F3E
:105AC0002078052805D007282CD083488149B53097
:105AD00025E07F48FDF7EAFD002804D07E487D4997
